:020000041100E9
:10900000D0E4FF1F09900011024981F3088808F09D
:0890100031FD0000D0E4FF1F58
:08901800946602000100000053
:1090200009000000F1590000FD240000411B02115D
:10903000490802114519021109320111ED160111F9
:1090400041460100255CFF1F431E0200581E83415C
:1090500017485B42F0B503401648174D1B185001E6
:109060002A18127E8BB00191002A1BD01A000832F8
:10907000D46F0022E6B206AFE4B294420EDC2818A8
:10908000C369002B08D0019902AA117106AA0492A3
:1090900002AA167303A898470BB0F0BD1978B9540B
:1090A0000132EAE71A7D1A7806AB01261A70E6E764
:1090B00000B0FFFF009000408C83FF1F7FB5244B62
:1090C0004101CA5C0400002A2AD05A18107E0028E8
:1090D00026D0907E002823D01079022820D116892E
:1090E000D588701B80B2021C102800D9102292B2C1
:1090F000AE4216D101225B181A710022DA801A8161
:10910000DB69934206D06846032102730171029223
:1091100001A898470820002C00D0192003F0ABFECE
:109120007FBD013C601E84410A48644204400A48F5
:109130005B1824180948DD680633013A92B282426E
:10914000EED019884E1C1E80695C2170F5E7C04680
:109150008C83FF1F00B0FFFF00900040FFFF000066
:1091600010B505F035F8074A0121130010CB49422C
:10917000D967054B0020136002F0FAFB05F070F888
:10918000200010BD00E100E01000100010B5040048
:1091900005F01EF8034B01201C6002F0E9FB05F00E
:1091A0005FF810BD00E100E010B505F021FB0728D5
:1091B00005D0122809D0022806D1142004E004208A
:1091C000034A136B0133136310BD0220FCE7C04652
:1091D00094D4FF1FF8B507000C0026002500503678
:1091E00030785135002803D15834287020701DE0A4
:1091F0002978CA00481E8141A3183800A25C5B6828
:10920000C9B2FFF7D1FF00280DD12B78DA00A218E0
:10921000013350602B703378054A013B3370136A79
:1092200001331362D9E7012358342370F8BDC046D7
:1092300094D4FF1F5C23084A4343116810B5C91832
:109240000B0058331B78012B05D1FFF7C3FF034AEE
:10925000936A0133936210BDC8D4FF1F94D4FF1FDB
:10926000A12170B5174B89009B785943164B1B6899
:10927000591891239B00CB58CC8E002B16D0134A43
:1092800012681000FC30406B012B18D0E8256D00EF
:109290005559220A0E4E0132062B0ED84979012962
:1092A0000BD0023BF35C6B4353431B1809486043EC
:1092B000C010984200D9180070BD3379F3E703005D
:1092C000F4E7C046300DFF1F3409FF1F1C8CFF1F41
:1092D000CC80FF1F5307000010B505F0F1FA054BD5
:1092E00000205B68052B04D9034A5268D20200D4DF
:1092F000980810BD00100040FCE100E0A12210B56C
:10930000094B92009978094B4A431B689B181B79BB
:10931000074A5B009B5C002B03D00022054B9A712F
:1093200010BD04F08DFFFBE7300DFF1F3409FF1F58
:1093300059D2FF1FE010FF1F10B5040005F038F8E8
:109340009F229200A3581B0C1B04A350D62322007B
:109350005B00E358FC32136753679367D367BE2201
:109360005200A3500432A3500432A3500432A3503D
:109370000432A3500432A3500432A3500432A35049
:109380000432A3500432A3500432A3500432A35039
:109390009323A83A9B00FF3AE25010BD10B504F0A9
:1093A0009FFFA1229F21074B92009B788900534386
:1093B000054A1268D2185358548C1B0C1B042343C3
:1093C000535010BD300DFF1F3409FF1FF8B53E4C40
:1093D0002368002B2CD004F01BFF2268D040A1246E
:1093E0003A4BA4009B783A495C433A4B3A4E1B688F
:1093F0003A4D1C19912362789B00002A22D12278D1
:10940000002A02D0E2580132E2500B68B26C93425B
:1094100015D3D23B9B1A9127BF002B60E359012B38
:109420001FD13368FC335B6B2A689B182B603FE0CD
:1094300004F0EEFE2A4B196804F00EFDCFE729492F
:109440005B18E7E70022E2500A68B36C9A4205D342
:10945000D31A3268D268101AC318DCE722495218AE
:10946000F6E7013B052B23D86379012B20D0FFF7CA
:10947000F7FEE38E1D4A5A43D210824219D8E059B2
:109480000021022811D0366819490338085C3100E0
:10949000FC31496B1B0A511AE8225200B2580133C1
:1094A00042435343C91A0723E3512B6859182960D3
:1094B000F8BDE822316852008958E2591B0A4A4334
:1094C00001335343B0E7C0461C08FF1F300DFF1F98
:1094D0009C09FF1F3409FF1F1C8CFF1FA009FF1FE1
:1094E0001808FF1F2DFF3F00FFFF3F00530700003C
:1094F000CC80FF1FF0B587B005F0E2F9644BA124E2
:109500001A00FC3250619B78A4005C43614B1B68DD
:109510001C1904F05DFE604D60492B680E785A6D91
:109520009B6D964202D3002A00D016005C4A127846
:1095300003929A4202D3002B00D003938922270082
:109540009200A3583D370133A350564B1B68002BA4
:1095500007D0B9213A78490052009B185A5A013273
:109560005A5223003C331A789A7004F009FF83237F
:109570009B00E05C03F072FA83239B00E05C04F044
:1095800097FF05F005F805F06BF8E06A04F080FF3E
:10959000A06A05F05DF8387804F00AFE387805F026
:1095A0005FF9582005F0E4F8FF2004F0F9FF627934
:1095B00063693D4F002A04D193229200A258002AE9
:1095C00058D02A685B00D06F2200323212781B1804
:1095D0007A43E08E9B187843344A904200DD1000B5
:1095E000334A8018984200D9180004F0C1FDEF22D8
:1095F0002B68E08E52004743A05A1A00FC32381AFA
:109600009B6C1768C01B984200D9180083270E2551
:10961000BF0004F025FFE05D05F05AF9042005F0D5
:1096200097F8072004F024FE02ABED182900300063
:1096300004F0AEFE9A2101266B46C2B2288849008A
:10964000615C1B7B01900096302004F019FE194DDF
:109650002B78DBB20393E35D2B7004F081FF164B94
:109660001E60039B2B7004F0FBFD142004F040FEF1
:1096700007B0F0BD29682078CA6C002806D0A06920
:1096800018180B69181840008018AEE7C868F9E789
:10969000300DFF1F3409FF1F1C8CFF1F1509FF1F12
:1096A0001609FF1FBC09FF1F71020000DA2F00001E
:1096B0001EFBFFFF490AFF1F9809FF1F70B50B78BB
:1096C0000400002B11D1C378012B12D14A790B79F8
:1096D00012029B189BB2002B0BD122220721FF32D2
:1096E0008354200004F04CFF70BD122B01D11321D4
:1096F000F7E723008F331B78002B0DD023008A332C
:109700000E4A1B88934207D10D4BDB78002B03D008
:10971000822301229B00E25482262000B600A55D30
:1097200004F066FD0022074B4D331A70012DDBD18A
:10973000A25D002AD8D11D70D6E7C04601170000EF
:10974000E010FF1F1C8CFF1FF0B589B004F040FD36
:10975000072004F0CDFD04AB9C1D21008E4807AB13
:1097600006AA04F09DFE060004F05AFF002805DD5D
:1097700000268A4A2680536E013353660F23884C95
:10978000A28813405206D20F0092864A1578002E06
:1097900000D123E1032B00D020E1013B9D43012DAB
:1097A00000D0A5E07D4A136A013313627E4B217B12
:1097B000DA79914200D09BE0E26819891202120C1A
:1097C000914200D094E0E17B9A7A914200D08FE000
:1097D000217CDA7A914200D08AE0627C1B7B9A423B
:1097E00000D085E0714E33004E331B78002B06D13C
:1097F0006F4B1878012850D028006E4C67E030007D
:1098000006226C494F3004F03BFF0028F0D0634C37
:10981000236D01332365684B1B68002B00D0B6E035
:1098200004F006FD0123654D2B7005F049F8644BEB
:109830001A68831A824202D3831A624A9B183068DC
:109840004768426C016C7620C01B0127C01AD2B257
:10985000C9B2C0B204F0E4FF04F082FE5A4B1F60AC
:1098600000232B7004F094FE04F0FAFE574B584886
:109870009988090A023104F0A3FE0E2004F038FD95
:10988000636A3000DB196362330006224E334949B4
:109890004F301F7004F09CFD2AE0009BE17A002B02
:1098A00031D03F230A009A43402A2CD1414C20005A
:1098B00004F06EFC072860D82E2358430400454B63
:1098C0002134E4181B180133DB7F00980093374BD9
:1098D0001B68DB6A1B0756D50222334BDB7B9343A5
:1098E000012B50D101284AD02C4A136B013313634A
:1098F000354B1B68002B01D104F0AAFC04F0B0FC2E
:10990000012009B0F0BD0022A3790193E37902930D
:10991000237A657A9C46A37A03932F4B1F78009C89
:10992000A74225D15F78019CA74221D19F78029C54
:10993000A7421DD1DF7867451AD11F79AF4217D1F1
:109940005F79039CA74213D19F798F4210D12E23B8
:109950005A432049174C8B180833DB7F002BB6D1B4
:109960001032501804F06CFD431E9841C0B2AEE7AF
:1099700001322E33082AD1D13FE70020A7E721008A
:10998000009804F08DFE002800D040E7ACE798472F
:10999000002800D044E7ABE79414FF1FFC0FFF1F23
:1099A0009014FF1F1C09FF1FA60BFF1F1C8CFF1F1D
:1099B0001809FF1F9614FF1FC409FF1F8C09FF1F02
:1099C0009C09FF1FFFFF3F009809FF1F8413FF1F23
:1099D0008813FF1F890EFF1FA90EFF1F052B00D044
:1099E000D1E0013D012D00D982E7714A009B714F02
:1099F0003B70936A013393626F4B217BDA7991421A
:109A000000D075E7E26819891202120C914200D069
:109A10006EE7E17B9A7A914200D069E7217CDA7A9D
:109A2000914200D064E7627C1B7B9A4200D05FE7E2
:109A3000009BE17A002B59D03F230A009A43402A29
:109A400054D15E4B5E4E1D78012D00D087E0300072
:109A500004F09EFB072800D984E02E23584304001D
:109A6000584B2134E4181B180133DB7F0622009386
:109A70003100023354483B7004F0AAFC534B544E5F
:109A80001B68DB6A1B070ED53378012B0BD14A4BC1
:109A9000DB7B023B012B06D8012D04D1210000986D
:109AA00004F0FEFD05003378414A022B18D1494BE2
:109AB00020785978884215D160789978884211D1F8
:109AC000A078D97888420DD1E0781979884209D1F7
:109AD00020795979884205D161799B79994201D1E0
:109AE000002D42D1536B0133536301E70022A37968
:109AF0009C46E3790193257A667A374BA47A5F789E
:109B0000674525D19F780198874221D1DF78AF4200
:109B10001ED11F79B7421BD15F79A74218D19F7917
:109B20008F4215D11F780098874211D12E235A43B6
:109B3000244901258B180833DB7F214C002B9DD154
:109B40001032501804F07CFC451EA841C5B295E7C0
:109B500001322E33082AD2D10125194C8EE7009DFF
:109B600034008BE700950025FAE7136D21000133DF
:109B70001365184B009A19481A70062204F028FC45
:109B800004F0D6FBB4E6012D00D0B1E60A49252247
:109B90004B7B2B4204D1233A13405A425A4126327E
:109BA0000B7D934200D8A3E6322004F019FC9FE617
:109BB000FC0FFF1F8D09FF1FA60BFF1F1809FF1FBA
:109BC0009614FF1F890EFF1FDA09FF1F1C8CFF1F51
:109BD0001C09FF1F7809FF1FA90EFF1F7909FF1F2E
:109BE000F0B589B0060004F0F3FA04AB9D1D29001E
:109BF000BF4807AB06AA04F053FC0024070004F09A
:109C00000FFDA04205DD2700BA4A2C80536E0133B8
:109C100053660F22B84CA5882A406D06EB0F0193BE
:109C2000B64B002F00D108E1710500D45AE1032A98
:109C300000D0FAE1AF490A6A01320A62217BDA797F
:109C4000914200D04EE1E26819891202120C914251
:109C500000D047E1E17B9A7A914200D042E1217C39
:109C6000DA7A914200D03DE1627C1B7B9A4200D0BF
:109C700038E1A34E33004E331B78002B41D1019BBA
:109C8000E17A002B54D10022A3790293E379039364
:109C9000207A677A9B4BA47A5D78AC46029DAC45EE
:109CA00000D0B6E09D78AC46039DAC4500D0B0E056
:109CB000DD78854200D0ACE01D79BD4200D0A8E03F
:109CC0005D79A54200D0A4E09D798D4200D0A0E04E
:109CD0001D78AC46019DAC4500D09AE02E235A4336
:109CE00089498A4F8B180833DB7F002B00D09EE018
:109CF0001032501804F0A4FB441EA041C4B2390035
:109D00002FE03000062281494F3004F0B9FC0028D2
:109D1000B5D0784A136B013313637D4B1B68002B5E
:109D200001D104F095FA04F09BFA012009B0F0BDCE
:109D30003F230A009A43402AA5D1764B734F1C78E3
:109D4000012C6ED1380004F023FA07286BD82E239B
:109D5000584301006C4B2131C9181B180133DB7FBC
:109D60000193674B1B68DB6A1B070BD50222634B11
:109D7000DB7B9343012B05D1012CCAD1019804F060
:109D80008FFC0400002CC4D05A4C236D0133236592
:109D9000614B1B68002B4CD104F04AFA01235F4D44
:109DA0002B7004F08DFD5E4B1A68831A824202D339
:109DB000831A5C4A9B1830684768426C016C7620B5
:109DC000C01B0127C01AD2B2C9B2C0B204F028FD2C
:109DD00004F0C6FB4E4B1F6000232B7004F0D8FB31
:109DE00004F03EFC504B51489988090A023104F0B6
:109DF000E7FB0E2004F07CFA636A3000DB19636233
:109E0000330006224E3341494F301F7004F0E0FA10
:109E100083E701322E33082A00D03DE73B49012475
:109E20009FE7019C6BE701943900002499E7390012
:109E3000F5E798470028AFD16FE7052A52D17205A0
:109E400050D52C498A6A01328A62217BDA799142A3
:109E500048D1E26819891202120C914242D1E17B89
:109E60009A7A91423ED1217CDA7A91423AD1627C4F
:109E70001B7B9A4236D1019BE17A002B5CD03F23B9
:109E80000A009A43402A57D1224B204F1C78012CBC
:109E900000D08BE0380004F07BF9072800D988E077
:109EA0002E2358430600184B2136F6181B18013391
:109EB000DB7F39009A1C01931D4B1E481A70062245
:109EC00004F086FA0E4B0B4F1B68DB6A1B0778D534
:109ED0000A4BDB7B023B012B73D8012C6CD07B6BD4
:109EE00001337B63054A00230121547B80E0C04697
:109EF0009414FF1FFC0FFF1F9014FF1FA60BFF1FE2
:109F00001C8CFF1FA90EFF1F890EFF1F9614FF1F39
:109F10009809FF1F1809FF1FC409FF1F8C09FF1FA5
:109F20009C09FF1FFFFF3F008413FF1F8813FF1FC3
:109F30008D09FF1FDA09FF1F0022A3790293E07940
:109F4000267A677A3B4BA47A5D78AC46029DAC4595
:109F500025D19D78854222D1DD78B5421FD11D796A
:109F6000BD421CD15D79A54219D19D798D4216D192
:109F70001D78AC46019DAC4511D12E235A432E4984
:109F800001248B180833DB7F2C4E002B9AD1103222
:109F9000501804F055FA441EA041C4B292E70132B1
:109FA0002E33082AD0D10124244E8BE7019C3E0099
:109FB00088E701940024FAE73100019804F070FB6F
:109FC0000400002C8BD03B6D019A01333B651C4B88
:109FD00031001A701B48062204F0FAF97C6C04F078
:109FE000A7F97B6C9C4200D097E67BE70133DBB29C
:109FF000200018410842F9D0117D2533994202D042
:10A0000004F0D6FA89E6104B1978052902D100220E
:10A010001A7082E65388052280215A430B4BD210D6
:10A020001878890104F07CFA77E6052A00D059E710
:10A0300007E7C046A90EFF1F890EFF1F9614FF1FDA
:10A040007809FF1F7909FF1F2309FF1F1B09FF1F45
:10A0500070B580241025E405A3682B43A36004F0A9
:10A060009FFBA368AB43A36070BD0000F0B585B053
:10A07000019280221F001023D205029191680400F2
:10A080000B43936000235B4DD7302B6004F0B0F995
:10A090009D232600039525009B00E358CA36320015
:10A0A0000121FC35002B00D00021286804F0A0FA23
:10A0B00021003278504BCB311A604A780B7812026B
:10A0C0001A438B78D3341B041A43CB784B4E1B06B0
:10A0D00013434B4A1BBA13604A790B7912021A4395
:10A0E0008B79F61B1B041A43CB791B061343454A95
:10A0F0001BBA13606278237812021A43A3781B04F8
:10A100001A43E3781B0613433F4A1BBA13603A0015
:10A11000019B1902029B19433C4B196001990329C9
:10A1200041DC019B01999B089A001300891A0329BD
:10A1300048D13249F8185218817840780904000251
:10A140000143F85C0433014311600022FF2B4CDD16
:10A15000F0222F4B12011A600F222E4B1A602E4A4A
:10A160001368002BFCD00023039A244813603B00A3
:10A17000019AC01B0432C1180968043A0C0A19700C
:10A180005C700C0C090E9C70D9700433002AF2DC50
:10A19000802210212B68D20501332B6093688B43FA
:10A1A000936005B0F0BDD478937824061B04234354
:10A1B0001478B018234354780439240223430360ED
:10A1C0000432ACE702290AD10C49F85C5218F9189C
:10A1D000497809020143043311609BB2B5E70129B4
:10A1E000B3D106495218F95CF5E7044959180A60D9
:10A1F0000433ABE7000004403C000440000104408D
:10A200003800044034000440300004400C00044096
:10A21000040004401000044014000440F0B5140091
:10A22000802285B002931023D2050D009168019021
:10A230000B43936000230198684FD7303B6004F0D4
:10A24000D7F89D23019A9B00D1581300019EFC333F
:10A25000CA363200002900D082E0586804F0C8F9FC
:10A26000327801995E4BCB311A604A780B78120232
:10A270001A438B78A4461B041A43CB7801991B061A
:10A280001343584A1BBA1360CF314A780B78120235
:10A290001A438B78201D1B041A43CB7801991B06A7
:10A2A0001343514A1BBA1360D3314A780B78120218
:10A2B0001A438B781B041A43CB7821021B061343E5
:10A2C0000D434A4A02991BBA13600A00484B1D60AD
:10A2D000484B5B1A0393039BD678D51893783606C0
:10A2E0001B0433431678043833435678043236025D
:10A2F00033432B600328EEDC0322A008431C9B00A1
:10A300001440800094422DD13A4A9D18029AD418E4
:10A31000A2786478120424022243029CE45C224363
:10A320002A60030008330022FF2B30DD324B334A12
:10A330001A600F22324B1A6001233B60314B1A68BE
:10A34000002AFCD006221B681340042B24D0802254
:10A3500010210020D20593688B43936005B0F0BDB7
:10A3600001217AE7022C0AD1224A029D9C18029A06
:10A37000D2185278EB5C12021A432260D1E7012C0A
:10A38000D1D11C4A029C9A18E35C1360C9E71948B2
:10A39000181802600433C7E700233B606346002BB4
:10A3A0000CDC802210210198D205FC304368013377
:10A3B0004360936801208B439360CFE7039BCB18E6
:10A3C0001B681A0A0B704A701A0C1B0ECB70042300
:10A3D0005B428A709C440431E0E7C04600000440C0
:10A3E0003C00044038000440340004403000044085
:10A3F0000C0004400001044004000440080F000069
:10A400001000044014000440F0B5924B85B0019058
:10A410009A78A1239B0053438F4AD62715681022B0
:10A42000ED183623FF33EB5C7F000C000026E85963
:10A430009343222B64D1894A213B13600660009329
:10A4400003F026FF2080E82464002F5D002F04D055
:10A45000019B9F4200DC7AE000270023804CE370E0
:10A46000AD33FF33EB581A68002A03D09B88DB43D7
:10A470009B073CD03823FF33EB5C002B37D09B236A
:10A480005B00EB5C002B32D1D133FF33EB5C019AE4
:10A4900093422CDA6F4B9A781C235A43714B9B18CA
:10A4A0001A7A002A23D10126DA681E723B006A3329
:10A4B0009B00EB189A606B461888002A1ED06A4AE7
:10A4C000BF19AB5CFFB29B19AB54A4235B00E95AE4
:10A4D000E818090A023104F073F8019BE670013BA9
:10A4E0000193009B9B1900932B00FE331E87E823EA
:10A4F0005B00EE5C002E2CD06B46188805B0F0BDDA
:10A5000003680093002B9BD081880430090A023134
:10A5100004F056F8EB591E60012390E72B00B1338D
:10A52000B200FF339858013681880430090A02319D
:10A5300004F046F82B5DF7B2B342EFDC019AD21A71
:10A540000192009AD318009300232B5585E700262B
:10A55000F0E7280003F0A4FE0290002836D0019B0B
:10A56000002B33DD280004F0B3F884002C19FC34F0
:10A57000206F81880430090A023104F021F8002894
:10A580001DD03B006A33226F9B00EB189A600023BA
:10A59000354A2367AB5C28000133AB54023AAB5C0D
:10A5A0000137013BAB5404F033F88822009B920042
:10A5B00001330093AB58FFB203930133AB50029BBE
:10A5C0000136B34202DD019BB342CBD11C22214BA9
:10A5D0009B785343234AD218137A002B2CD1234B58
:10A5E000EB5C002B00D187E795239B00EB5C002BF5
:10A5F00000D181E71E4BE95A002900D17CE71D4AB2
:10A60000AB5C99421ED90133AB5475E701339F42CD
:10A61000E5DD9A00A058CA689042F7D17A1E9A42A6
:10A62000F4D0D8219200AA1849006A3354589B00EC
:10A63000EB189C605050D2E72C00B134002311007D
:10A64000FF34E4E700231A212800AB5403F098FFFD
:10A6500052E7C046300DFF1F3409FF1F00140340AE
:10A66000E010FF1F7CD2FF1F820200005A02000090
:10A67000720200005E020000044B10B51A78D20787
:10A6800001D57622DA6004F0F3F810BD0020004016
:10A6900010B503F09DFD03F03BFF01220400034BC6
:10A6A00055331A7003F0DCFD200010BD1C8CFF1F19
:10A6B00010B50A4B9A78A1239B005A43084B1B689C
:10A6C0009B185A78002A06D09322920099580029A4
:10A6D00001D00021995004F00BF910BD300DFF1F7F
:10A6E0003409FF1F0F4A30B513680F499A240B40F5
:10A6F0001360022203256400035D017913400B4AB5
:10A700004900511849780B430355094C2168A94366
:10A710000B430021236003795B009954D2185170D8
:10A7200030BDC04640100340FFFEFFFF59D2FF1F5F
:10A730003C10034070B5104B01251B78002B19D03D
:10A7400003F046FD0D4B1B68FC33DC691E6AFEF707
:10A75000C3FDA419A04203D9094B1B68002B07D0E5
:10A7600004220025074B1A70074A9369013393614D
:10A7700003F076FD280070BD1C09FF1F1C8CFF1F15
:10A780009809FF1F2309FF1FFC0FFF1FA12210B50F
:10A79000134B92009B7804005343124A1268D2185C
:10A7A0009F239B00D358511DC97F9BB28B4209D96F
:10A7B000D269601C06D0C82C04D05B1A5A430A4BDD
:10A7C0005343E418200004F003F8631C07D003F09F
:10A7D000E7FC002803D11421044803F0B1FF10BDA9
:10A7E000300DFF1F3409FF1F7102000000100040F0
:10A7F00010B519494A7F0B7F12029B189BB2002BA0
:10A8000029D003F0CDFDA122144B92005B7D5A4369
:10A81000134B1B689A1811000023FC310B674B6720
:10A820008B67CB67BE21490053500431535004312C
:10A8300053500431535004315350043153500431B8
:10A8400053500431535004315350043153500431A8
:10A8500053500431535010BD9014FF1FA60BFF1F1F
:10A860003409FF1FA121104A104B1278890051436F
:10A870001B686D33FF33C918994200D170471A6CB9
:10A880001A605A609A60DA601A615A619A61DA61F4
:10A890001A625A629A62DA621A635A639A63DA63D4
:10A8A000A12292009B18E7E71409FF1F3409FF1F3C
:10A8B000034B10B51B68002B00D0984710BDC04655
:10A8C0005C03FF1F034B10B51B68002B00D098479B
:10A8D00010BDC0466003FF1F044B10B51B68002B62
:10A8E00001D0984710BD03F043FEFBE78002FF1F35
:10A8F000044B10B51B68002B01D0984710BD03F026
:10A9000037FEFBE78402FF1F044B10B51B68002BCA
:10A9100001D0984710BD03F02BFEFBE78802FF1F14
:10A92000044B10B51B68002B01D0984710BD03F0F5
:10A930001FFEFBE78C02FF1F044B10B51B68002BAA
:10A9400001D0984710BD03F013FEFBE79002FF1FF4
:10A95000044B10B51B68002B01D0984710BD03F0C5
:10A9600007FEFBE79402FF1F044B10B51B68002B8A
:10A9700001D0984710BD03F0FBFDFBE79802FF1FD5
:10A98000044B10B51B68002B01D0984710BD03F095
:10A99000EFFDFBE79C02FF1F10B5040003F090FFE2
:10A9A000A04213D303F08CFF001B0B4B9A6882422A
:10A9B00000D99860094A936F834200D290670723B9
:10A9C000D16F4B431818C008D06710BD03F078FF53
:10A9D000034B001BC018E8E7CC80FF1F1C8CFF1F37
:10A9E000FFFF3F0070B5040003F0F2FB0C4A0D4D71
:10A9F0001378002B0BD10621117001202B7002F06F
:10AA00002DF8200003F03CFD03F02AFC70BD03F09C
:10AA1000D7FC002801D00623EFE707232B70F3E7CC
:10AA20001C09FF1F2309FF1F70B503F049FF654B89
:10AA30001860042003F05CFC03F092FC0400C307E0
:10AA400002D403F005FC70BD00225F4B1A605F4B1F
:10AA50001B78012B24D103F05BFE0128F3D05C4C62
:10AA60002378042B00D098E003F0CAFB002813D011
:10AA700003F09EFD582003F07BFE2378002B01D0CD
:10AA800002232370534B44331B78002B04D02378CC
:10AA9000002B01D103332370032003F029FCD2E7FC
:10AAA000032B02D103F0C4FED7E7042B02D103F03D
:10AAB0005FFCD2E7022B02D103F012FECDE7052B9B
:10AAC00002D103F065FEC8E703F0DAFE414E05004F
:10AAD000012822D1404B1B78053B012B1DD82000BB
:10AAE000FFF7FAFE002355363370022DB7D13A4BEB
:10AAF00019780129B3D16305B1D4384A2523507B95
:10AB0000084203D12840434243412633127D9A42F2
:10AB1000A5D9322003F064FCA1E72D4B1B78022B52
:10AB200001D0052B0FD1002D09D0022D44D12B4A85
:10AB3000927BAA4309D12000FFF7DAFED2E720007A
:10AB4000FFF706FFCEE7022D36D1234A1278052AF9
:10AB50000FD12000FFF7D8FEC4E7012B03D120005E
:10AB6000FFF7DEFEBEE7062B28D12000FFF7E4FE4C
:10AB7000B8E761050BD5310055310978002906D0B9
:10AB8000013A022A03D82000FFF7FAFEAAE7012BB8
:10AB900014D12000FFF7E8FEA4E7032B04D1104BEB
:10ABA000987C03F00DFB77E7072B00D074E70D4B83
:10ABB000987BFFF717FF6FE7012DCED0200003F041
:10ABC000D7FC8FE79C09FF1F9809FF1F9009FF1F03
:10ABD0002309FF1F1C8CFF1F1C09FF1FA60BFF1F53
:10ABE000BC0BFF1FD40BFF1F70B5174E040033784A
:10ABF0000D00002B0ED0082003F07AFD011E08D0B6
:10AC0000124B84800380142385718370307803F0A5
:10AC1000CFFD70BD0F2003F06BFD011EF9D0FF23A7
:10AC20005B42038003000833436004233E22037227
:10AC300083720A33C372064B0473240A427244734C
:10AC400085731878E3E7C0460E09FF1F913E0000A8
:10AC50000C09FF1FF0B5414D0C0087B00D40102DC1
:10AC600016D1A1213E4A8900107C3E4A4143126818
:10AC70003D485218117900223C4B1B7800900492F9
:10AC8000022003920292019203F022FC28002DE0A0
:10AC90004B072ED5A125364BAD005B7D354A5D4374
:10ACA000304B12781B68023A5D19304BD2B21B78D8
:10ACB000012A00D813002A00303212782979049230
:10ACC0006A8F0020120903922A8F0292EA8E52089C
:10ACD0000192254A0092012203F0FAFB264BE95C1F
:10ACE000012902D12879FFF77FFF0420604007B0D7
:10ACF000F0BD8022214BD2000B40934215D1012799
:10AD00001F4E7F42351D44366B78012B07D12978C1
:10AD1000688803F075FB00236F802B706B7004351F
:10AD2000B542F1D18020C000E0E780254B045B0CE8
:10AD3000ED01AB420ED1134A1378002B03D0084B20
:10AD4000197A002902D1002313709FE7987BFFF73F
:10AD500049FE9BE703F07CFBC9E7C04618080000EA
:10AD6000D40BFF1F3409FF1F7909FF1F7809FF1F4C
:10AD7000A60BFF1F8D09FF1F0D020000DE0D000056
:10AD80001C8CFF1F2309FF1FF0B587B004000D00C6
:10AD9000170004A905AA03A81E0003F091FA05995B
:10ADA00000291EDD134A1068030ADBB22060181D5B
:10ADB00080100193831C99420FDD013081006118DE
:10ADC0000434A14213D81168019B39601268023320
:10ADD0003260C0B22B8007B0F0BD074A536E01331A
:10ADE000536600202070386030602880F3E71368D5
:10ADF00008C4E6E7001C0340FC0FFF1FA523062242
:10AE00005B0010B5C25403004B33FF33053A0321F6
:10AE1000040003F085FA38230122FF33E254074A85
:10AE20001133E2522D33FF33E358002B04D12300BA
:10AE300090331B8892342380012010BD030500004D
:10AE4000030010B504000020FE331B8F83421CD189
:10AE5000A52313225B00E2542300A6331B78123A89
:10AE6000834207D023004B3303212000FF3303F03C
:10AE700057FA052238230120FF33E054353BFF3BCE
:10AE800012021A434633FF33E25210BD0722F0B5D7
:10AE90005A4C5B4E23688BB013409B009B5901902A
:10AEA000DB0B099380236268DB021A4202D16268DD
:10AEB0001343636018232268524F134323602368AF
:10AEC0005B015B0F18000293B84705000198B84773
:10AED000054301204C4B284098478446019B9B002A
:10AEE000F2584A4B1A60099B5A1E0992002BFAD15C
:10AEF00080200127C0058368454903934369454A7B
:10AF000004930B687F425B005B080593424BD76755
:10AF10005E68760076080696C02676008F513F4E12
:10AF20002237866047618020000608600F00614676
:10AF30000796C90703D58021A0680143A160614637
:10AF4000890704D58021A06849000143A1606E03F0
:10AF5000002D10D00E210D4207D060460D39084358
:10AF60008446A0687F310143A160F021A0684902B6
:10AF700031400143A160216802984901490F88428C
:10AF800006D020682649014002980006014321604E
:10AF900007212068019D084085420DD02068884324
:10AFA00028432060C046C046C046C046C046C04692
:10AFB000C046C046C046C0461A491B480C680440FB
:10AFC0006046C00104430C600868184C20403043C0
:10AFD0000860079E039980200E430121049CC00550
:10AFE000214386604161802100200906D167069ACD
:10AFF0005A60059B3B600BB0F0BDC0463CF0004082
:10B00000E07B0100018C0000A98A00007408FF1F8A
:10B0100000E100E004E100E0FCE100E001000800E4
:10B02000FFFFFFF844F000407FFEFFFFFF1FFEFF21
:10B03000802370B50125DB059D6202F027FDFFF737
:10B0400037FCFFF73FFC264B264C1B68186A03F0C1
:10B0500087FB254B254A1A60254B264A1A60A022F9
:10B06000254B52001A60254B1878C0B2FFF70EFF2F
:10B070002000234903F064FB0023A3600233A36094
:10B08000204B2149236003232048A36003F058FB91
:10B0900010221F4BFF201A60802252031A60802268
:10B0A00092031A6003F07CFA280003F0C1F9FA2039
:10B0B000A84003F05DF8582003F05AFB154803F050
:10B0C000CFF9280003F0A4FB072003F0D1F81249C0
:10B0D000124A0B681A4084235B0013430B6070BD57
:10B0E0001C8CFF1F14100040000003400180063D2F
:10B0F000BC00034034080000A40003404A0AFF1FBC
:10B1000071020000C3090000FFFF3F00281000404B
:10B1100000E100E0307500005CF0004000FEFEFF42
:10B12000A12292004243064B1B689B18054A9B18BC
:10B130001878054B1B789842804140427047C046C2
:10B140003409FF1F830200001509FF1F324B1A78D4
:10B15000022A04D11021314A126811620BE01A78D8
:10B16000012AF7D01A78032AF4D01A78042AF1D0E9
:10B170001A78052AEED01A78022A04D11B21274A10
:10B180001268516017E01A78012A03D1234A12216C
:10B190001268F6E71A78032A03D1204A0E211268B2
:10B1A000EFE71A78042A03D11C4A0C211268E8E759
:10B1B0001A78052AF8D01A78022A09D1174B1F21CC
:10B1C0001B681A009C3211602122A0331A6070475C
:10B1D0001A78012A08D1114B14211B681A009C32DD
:10B1E0001160A0331822F1E71A78032A08D10B4B1B
:10B1F00010211B681A009C321160A0331322E5E76E
:10B200001B78042BE3D1054B0E211B681A009C32DE
:10B210001160A0331022D9E74A0AFF1F1C8CFF1FC0
:10B2200010B50B4B01241B78002B0ED002F0D0FF81
:10B23000FEF752F8074B0024984204D9064B1C68CD
:10B2400063425C41E4B203F00BF8200010BDC0463D
:10B250001C09FF1F881300009809FF1F07B50F4B3B
:10B260000F4910484B60027F437F2720120313438E
:10B270000B810D4B1E211A7D801A9A69DB695043A0
:10B28000C01802F0E9FD0322084B000218401043E9
:10B29000019001A9064802F005FD07BD2707061821
:10B2A0007812FF1F9C8CFF1FCC80FF1F00FF1F0028
:10B2B0008212FF1F70B50E4D2722AE7F0D4C33005A
:10B2C0000A33DBB21B021343A3800B4B0B49E38011
:10B2D000213A0B4802F0E6FC2A7F6B7F12031343EE
:10B2E00008493200E381084802F0DCFC70BDC0462A
:10B2F0009C8CFF1F7812FF1F090900006509FF1FC2
:10B300008012FF1F0C81FF1F8812FF1F0F2210B534
:10B310000C490D4C8B880D4893431A0002231343AC
:10B32000BF221340A27F0632120213438B800622F3
:10B33000074903F04DF8A27F0649074803F048F893
:10B3400010BDC0467812FF1F9C8CFF1F7E12FF1F8E
:10B350006509FF1F0C81FF1F8412FF1F0B0010B532
:10B360001100044AD077937703481A0003F030F8AD
:10B3700010BDC0469C8CFF1F0C81FF1FF7B5060057
:10B3800002F026FF0122394D6B1CDA77AB1CDB7F04
:10B39000002B02D002F064FFF7BD354F3B68002B55
:10B3A000F8D1344B1B78002B0CD0FDF795FF324BB6
:10B3B0009842EFD93B68002BECD1304BC418304B8E
:10B3C0009C4200D92E4CEB1CDB7F002B18D003F0E5
:10B3D00077FA6B6A019398423BD803F071FA019BAC
:10B3E000181A284B98423BD82B0028331E7800238C
:10B3F0000335EB77FA239B00C018844200D9040080
:10B400000125214B1D701878C0B201F027FB03F015
:10B4100027F903F0BDF81D4803F03AF81C4803F083
:10B4200017F9300002F0C4FE300003F019FAFF20D3
:10B4300003F0B6F8200003F09BF903F001F90320B4
:10B4400002F016FF03F08CF80322124B3D601A70D5
:10B45000A0E703F035FA104A019B94466344BFE726
:10B460000E4B9842CCD8054BC6E7C0469C8CFF1FBC
:10B470009809FF1F1C09FF1F881300003CF6FFFFFF
:10B4800010270000B70B0000490AFF1F5555550053
:10B49000D6BE898E9009FF1FFFFF3F000F270000D7
:10B4A00070B5041E1AD00222714B9B799343012B75
:10B4B00014D1704B1A78FF2A10D15A78FF2A0DD177
:10B4C0009A78FF2A0AD1DA78FF2A07D11A79FF2A57
:10B4D00004D15B79FF2B01D112240DE0664B1A7861
:10B4E000012A00D1C2E00022644E1A7033781A009B
:10B4F000093A042A02D82124200070BD5C4DA87BA3
:10B500000428E9D8AA79032AE6D8002C00D181E0E2
:10B51000012CE1D1AA88012AEDD0002B0AD10138F3
:10B52000032803D802F018FE272F2B271F20347082
:10B5300002F0DEFE33785A1E032A28D8504C631CD2
:10B54000DA7F002A0BD000225820DA7703F010F9B6
:10B550004C4A1368012BFCD001230134E37700240B
:10B56000494B1C6028232B7502F00AFEA0423DD0F7
:10B57000AC802134C0E7022320203370D8E70423B5
:10B5800022203370D4E7032321203370D0E7073B18
:10B59000012BB0D83D4B1B68DB6A9B06ABD53C4EFC
:10B5A0003378002BA7D1AB7B9A1E012A01D9002B3F
:10B5B000A1D1334C631CDA7F002A0BD00022582023
:10B5C000DA7703F0D5F82F4A1368012BFCD001235A
:10B5D0000134E37702238021337026332B75273B18
:10B5E000AB802C4B8901187802F01AFF0123AB8045
:10B5F000294B1C78002C00D17EE7FA228021274BB2
:10B6000092001B8809025A43224B0024187802F04A
:10B6100087FF71E702F0DCFD3378AC80073B012B3C
:10B6200006D91F48347003F04BF81E2002F060FE6C
:10B63000174B184D1A78002A06D08021002228784E
:10B6400089011A7002F014FF02F00AFE0C4B01335C
:10B65000DB7F002B04D0134B0133D87FFFF78EFE26
:10B6600080212878090202F003FF45E70C2443E714
:10B67000A60BFF1F6B09FF1F1A09FF1F1C09FF1FE5
:10B680009C8CFF1F9809FF1F4809FF1F1C8CFF1F80
:10B690002309FF1F1B09FF1F2109FF1F2C09FF1F83
:10B6A00000100040CC80FF1FF7B5564C631CDA7FBA
:10B6B000002A0BD000225820DA7703F059F8524ABA
:10B6C0001368012BFCD00122631CDA7702F080FDA5
:10B6D0000123A71CFB77FFF7A3FD061E0ED1013443
:10B6E000F87702F0BDFDE47F002C05D0474B340015
:10B6F0000133D87FFFF742FE2000FEBD2523434ED5
:10B700003375243B0193337D253B022B59D8E37FCE
:10B71000002B53D1FFF7A2FD3D4B019A01201A7077
:10B7200001F09CF9012002F0C3FE3A4802F0B0FE9D
:10B73000394802F08DFF307D02F03AFD307D03F094
:10B740008FF8322002F02CFF02F022FF02F088FF77
:10B7500002F06EFD314B32489988090A023102F03D
:10B760002FFF337D242B0FD803F0AAF8431B85420B
:10B770002DD82C4A00201168C62252008A589A42BD
:10B7800000D9D01A02F084FF102702F0E9FE264A01
:10B79000136801990B42FBD0244B5B683B42F7D006
:10B7A00002F056FDC023224A5B00D750337D1A00B9
:10B7B000253A012A0ED801333375A4E7FFF7A6FD19
:10B7C000AAE703F07DF80500FFF774FDA4E7194A26
:10B7D0009B18CEE7272B04D1E37F002B01D1033345
:10B7E000EAE70022A31C0134DA7702F039FDE37F97
:10B7F0000124002B00D17FE73619F07FFFF7BEFD53
:10B800007AE7C0469C8CFF1F9809FF1FCC80FF1F62
:10B81000490AFF1F55555500D6BE898E7812FF1F65
:10B820007C12FF1F1C8CFF1F10100340FCE100E086
:10B8300000E100E0FFFF3F0010B5084B5A1CD17F2C
:10B8400000290AD0002103335820D177D97702F09C
:10B850008FFF034A1368012BFCD010BD9C8CFF1F87
:10B860009809FF1FF0B58DB004913A4901900592F7
:10B8700008680A00EC21069312AB1E7813AB1B7804
:10B880004532079314AB1B784900089315AB1B781E
:10B8900041585BB2029316AB1B88099317AB1B7818
:10B8A0000A9319AB1F7813788B4250D2013313706F
:10B8B000294B1B78002B4AD09020400002F018FF43
:10B8C000051E44D00400254B083403604460032364
:10B8D000042E00D0331CDBB2039304230026019A0C
:10B8E0001A400B92019B06222380049B0599A370AA
:10B8F000E01C02F06DFD069B6372039BA372079B25
:10B90000E372089B2373029B6373099BE3810A9B89
:10B9100023740B9B002B05D02000062218991130B0
:10B9200002F056FD2000E7753A001A99183002F02F
:10B930004FFD029B01366373EB781934F6B2FF3486
:10B94000B342CFD8044B2900187802F031FF0DB074
:10B95000F0BDC0461C8CFF1F0E09FF1F913E0D015C
:10B96000014B024A1A6070479C01FF1F9138FF1F6C
:10B9700070B5144B002811D000221348134D213309
:10B980002C30D15C002905D094002458002C01D023
:10B9900089004C510132102AF3D170BD21331A00B5
:10B9A000040009492C31835C002B06D0074D9B0015
:10B9B0005B191E6885006E501C6001301028F2D1A2
:10B9C000EBE7C046CC80FF1F9C8CFF1F0000FF1FD1
:10B9D00010B502F0F5FE094B094A1A60094B0A4AF4
:10B9E0001A600A4B0A4A1A600A4B0B4A1A600B4B40
:10B9F0000B4A1A600B4B0C4A1A6010BD9003FF1FD4
:10BA0000F544FF1FF001FF1F952FFF1FF801FF1FD7
:10BA1000197403114800FF1F013DFF1F8402FF1F1F
:10BA20004124FF1F9400FF1F5130FF1F10B502F08B
:10BA30009BF810BDF8B5002402F0CAFB134A26009B
:10BA400025001000124F134B98420CD9124802F0F7
:10BA500067FE02F005FC3200290023000F4802F0C7
:10BA60005FFE2800F8BD1368002BF2D013885178D0
:10BA70005B045B0C7F2902D9ED18D218E3E7F618B6
:10BA80009C42FAD2BA42F8D91C00F6E79CA6FF1FE6
:10BA900010A9FF1FFFEFFFFF285903115E59031183
:10BAA000F0B585B00AAC20CC0D4F0395002502936C
:10BAB00065573C003F684534BC46EC2763467F0031
:10BAC0002678DF59BE4208D2039B01950093029B62
:10BAD00002F0B6FE23780133237005B0F0BDC046F6
:10BAE0001C8CFF1FF0B591B0040002F071FBC02365
:10BAF000DB001C409C424BD12E2402ABE4182100F9
:10BB000056480FAB0EAAFFF73FF9554E0B90B5887C
:10BB100002F086FD002837DC0F232B40072B00D0D6
:10BB200080E0504D2C220021280002F067F8B488F4
:10BB3000B6793F2137000F4039004B4802F070FBC7
:10BB40002B78DA0649D5AB7CA88A012B3FD01E237F
:10BB5000464A4343516BFA2292004A439A4217D90C
:10BB60000121434CE21CD1772200297C283211703C
:10BB70000B9A55015D1B02F0A3FE80234019DB03E5
:10BB8000984227D2606203E03A4A536E013353660B
:10BB9000374B0133DB7F002B0BD0344B5A1CD07F4B
:10BBA0000130C0B2272800D925200133D877FFF70C
:10BBB000E5FB314B1B68002B04D102F049FB10223E
:10BBC0002E4B1A7002F04CFB012011B0F0BD9623F1
:10BBD0005B00BDE72A4BC018D4E7DA07D8D5FF22AF
:10BBE0001B0701D5EA89120BA111240AFD1DE71BD1
:10BBF00000240694059404940F9C0123240E6442AF
:10BC000064B203947F24B009154E013FAD19FFB211
:10BC1000019219401B4A0895079702940093FFF779
:10BC200021FEB5E7022B01D9062BB1D10F9AB188BD
:10BC3000120E013B49065242DBB20020C90F52B23C
:10BC4000052B01D81048C05C238801920F4A083B9D
:10BC50000092DBB20E4AFFF723FF99E79414FF1F0F
:10BC60009014FF1FEC10FF1F9714FF1FCC80FF1FC5
:10BC70009C8CFF1FFC0FFF1F9809FF1F9009FF1FDF
:10BC80000100C0FFED10FF1F625C03119C14FF1F39
:10BC90009614FF1F70B502F013FE6A4B1860042063
:10BCA00002F026FB02F05CFB0400C30702D402F0A2
:10BCB000CFFA70BD0022644B1A60644B1B78012BD5
:10BCC0002ED102F025FD0128F3D0614C2378042BFE
:10BCD00000D0A2E002F094FA002813D002F068FC31
:10BCE000582002F045FD2378002B01D00223237059
:10BCF000584B44331B78002B04D02378002B01D100
:10BD000003332370544B0133DB7F002B04D0534BA0
:10BD10000133D87FFFF732FB032002F0E9FAC8E7CE
:10BD2000032B02D1FFF7DEFECDE7042B02D102F098
:10BD30001FFBC8E7022B02D102F0D2FCC3E7052BA0
:10BD400002D102F025FDBEE702F09AFD414E05004A
:10BD5000012822D1424B1B78053B012B1DD8200026
:10BD6000FEF7BAFD002355363370022DADD13C4BA2
:10BD700019780129A9D16305A7D43A4A2523507B14
:10BD8000084203D12840434243412633127D9A4260
:10BD90009BD9322002F024FB97E72D4B1B78022B16
:10BDA00001D0052B0FD1002D09D0022D44D12D4AF1
:10BDB000927BAA4309D12000FEF79AFDD2E720002A
:10BDC000FEF7C6FDCEE7022D36D1254A1278052AA8
:10BDD0000FD12000FEF798FDC4E7012B03D120000E
:10BDE000FEF79EFDBEE7062B28D12000FEF7A4FD3E
:10BDF000B8E761050BD5310055310978002906D027
:10BE0000013A022A03D82000FEF7BAFDAAE7012B67
:10BE100014D12000FEF7A8FDA4E7032B04D1124B98
:10BE2000987C02F0CDF96DE7072B00D06AE70F4B45
:10BE3000987BFEF7D7FD65E7012DCED0200002F0FC
:10BE400097FB8FE79C09FF1F9809FF1F9009FF1FB1
:10BE50002309FF1F1C8CFF1F9C8CFF1FCC80FF1F22
:10BE60001C09FF1FA60BFF1FBC0BFF1FD40BFF1FDE
:10BE700010B500281FD1114A114B1178A122920050
:10BE80004A431B686D33FF33D2189A4215D0A12163
:10BE90008900186058609860D8601861586198618E
:10BEA000D861186258629862D862186358639863C0
:10BEB000D8635B18E9E7FEF7D5FC10BD1409FF1F36
:10BEC0003409FF1F10B5FEF7CDFC02F041FB040062
:10BED0000020FFF7CDFF200010BD000080230A00E6
:10BEE0001B0210B51A40194213D10324094B1860E4
:10BEF000094B1860094B1960A143411804390A60C5
:10BF00001A68043A0260064AD06610671A68054B40
:10BF10009A6310BDD408FF1FD808FF1FDC08FF1F5D
:10BF20009C8CFF1FCC80FF1FF0B587B00C000592E2
:10BF3000019002F04DF91E4F1E4E3B681E4D0293BC
:10BF40003368200003932B6804931C4BDA6E1B6F3D
:10BF50003A6033601A4B1B4A9B6B2B6000231370B3
:10BF600002F0EEFA0121029B04003B60039B1C20BF
:10BF70003360049B2B60134B1970134B002C0AD0B9
:10BF8000019A50431818037E5B18037602F068F993
:10BF9000200007B0F0BD019D059A6843D20010183B
:10BFA0001A5C002AF2D1195418184468EEE7C0460A
:10BFB000D808FF1FD408FF1FDC08FF1F9C8CFF1F41
:10BFC000CC80FF1FD008FF1F7CD2FF1FF0B589B0C7
:10BFD00002F056FCA124C54D0190AB78A4005C434F
:10BFE000C34E33681C19C34B1B68012B03D1C24AD3
:10BFF000936D01339365019B043B0293012B08D899
:10C000002379BE4A5B009B5C002B02D02000FEF728
:10C0100069FB02F055FCBA4BBA4ABB4988641A6006
:10C020000123BA4A1360BA4A1360BA4A1368180265
:10C0300008D5F2200F6840003858B74F00043B4045
:10C0400003431360029B012B00D9D2E0019B042B18
:10C0500067D1E28EB1480B685043EF225200A25ADA
:10C06000801A1A00F8321268A833801A6A781B689E
:10C070005208D040984200D9180002F0F1F902F0BD
:10C080001FFCA74B34261B780390002B00D0DC3616
:10C090000025200002F04CFBA8421AD9200002F033
:10C0A000AFFBA04F28183B78984200DB87E02000C8
:10C0B00002F0A6FB4019C7B28C4B022231009878DF
:10C0C000FFF732FF6237BF00E7197860002800D021
:10C0D0007DE09149944A002D00D082E080251368CC
:10C0E0009A200B4001216D021D4315602279834B7C
:10C0F0005200D1544000205C9A18084050708020B3
:10C100008A4A4000156828431060257910688D40E0
:10C110005B195B788843034313600222844B1A60E7
:10C1200064E0019B052BAAD16379012BA7D0AB78E2
:10C13000A125AD005D4333685D197E4B1B689BB242
:10C14000059391239B00EA58002A1CD1698CEB8E41
:10C15000059A4B435B109B180693FDF781F80790F7
:10C160000699079AEB69891A734A5A43D208914291
:10C1700005D95A08694B079953435B1806930698EB
:10C1800001F0F6FF7BE70B681900FC31486B012AD0
:10C1900002D1059A4300DEE7E82149005E58EB8EA4
:10C1A00066491B0A0133062A07D8023A895C7143A3
:10C1B0004B431B18059A5B00CDE70979F7E7200090
:10C1C00002F01EFB3F78EF1BC719FFB274E75C4A11
:10C1D0000135A35CEDB20133A354002303608380D7
:10C1E00057E713682D040B401D4315600398FEF7B5
:10C1F000D3FB544954480D680078EAB200280ED1A8
:10C20000524EEDB23078337840B25BB200285ADB40
:10C2100030781B0440B200021B185B190B60131C22
:10C22000502A00D95023DAB2022A00D20223484A07
:10C23000FF2012784749DBB2022A4ED10A68464DE8
:10C240008243464807782E78B7424CD90678007862
:10C250002D78023B5B10401B43437601F31A1033E9
:10C260005B111A43029B0A60012B14D83C4B1B78CC
:10C27000002B06D03B4B1B78002B02D0002002F095
:10C280008FF983239B00E35C033B012B03D8AF2092
:10C29000400002F06DFA019B022B0FD1324B1B784C
:10C2A000013B022B03D9314B1B78022B06D1264BC5
:10C2B0001B78002B02D16C2002F05AFA01222C4B81
:10C2C000DA8209B0F0BD3078FF3340B2FF301B0492
:10C2D000000218186B1EC318A0E70A68254D824398
:10C2E00025480778AFE70378DBB2BAE7300DFF1FC8
:10C2F0003409FF1F9809FF1FFC0FFF1F59D2FF1FB2
:10C3000014100340FF3F00001C8CFF1F0C10034063
:10C3100000100340BC000340FFFF00FF710200005B
:10C320001709FF1F1609FF1F0410034040100340A8
:10C33000681003402410034053070000CC80FF1F07
:10C3400081020000B40003408C09FF1F680AFF1F30
:10C35000490AFF1F94000340470AFF1F460AFF1FB8
:10C36000F908FF1F2209FF1F1C09FF1F2309FF1FD8
:10C37000BC0BFF1F450AFF1F440AFF1FF7B51E0035
:10C38000030000917B331B7804001500012B01D0C2
:10C390000720FEBD02F03CF8E8235B00E35C0133BC
:10C3A0009842F5DD1E4B34271B78002B00D0DC377C
:10C3B000200002F0A5F93900019000222079FFF752
:10C3C000B3FD019B9F00E719FC3738670028DFD0D9
:10C3D0002300A6331B78002B07D02A00330020004F
:10C3E000009901F09DFF0435EDB2A0229200A35CFC
:10C3F00029020133A354009B386F194381802A001E
:10C400003100063001F04EFC01223B6F20001A6023
:10C4100002F066FA034A0020A35C013BA354B8E78C
:10C420001709FF1F8302000070B505000C0001F022
:10C43000CFFE1C2300226B43104E9B191978002954
:10C440000BD05968A14208D11C2000234543D200DB
:10C450005219B35401F004FF70BD01320833032AAE
:10C46000ECD11C204543043C63787C3213407619A0
:10C470006370337E013B3376ECE7C0467CD2FF1F0E
:10C48000F7B5134B04005B790E008B421FD1C378C4
:10C49000002B18D003000500AD338D35FF33FF3579
:10C4A0000193296800290AD00F68002F07D120794D
:10C4B000FFF7BAFF074A2F60A35C013BA354019B1F
:10C4C00004359D42EDD13100200002F0D1F8F7BDD6
:10C4D000CC80FF1F81020000F8B5A124314BA400DD
:10C4E0009B78D6275C43304BE8261B687F001C19DD
:10C4F0000023E25976001360A3552C4B2C4A1D688B
:10C500002C496D056B0D2C4815680A686D010240B9
:10C510001A436D0D0A60ED1A002D09DCE8235B005B
:10C52000E65C35006C35AD006519072E28D9F8BDDD
:10C53000E0590368002B07D1043001F0E1FE01222D
:10C54000E3592D1A1A60E7E71C4AA35D12789A4254
:10C55000E2D96A339B00E31898680028DCD00430E5
:10C5600001F0CEFEA25DFF2113006A339B00E318A9
:10C570009B682D1A9B888B43CED00132A255CBE706
:10C580002968002909D0074B9878FFF74DFF002351
:10C590000B4A2B60A35C013BA3540136F6B2043571
:10C5A000C3E7C046300DFF1F3409FF1F4C10034086
:10C5B000501003405C1003400000FF071509FF1FE7
:10C5C000820200000300F7B50500A026D62704006C
:10C5D0008D336D35FF33FF350193B6007F00296839
:10C5E000002905D02079FFF71FFFA35D013BA3556C
:10C5F000E35908C5019B9D42F1D12600D627AD36EF
:10C60000FF367F002968002906D02079FFF70CFF4C
:10C61000254AA35C013BA354E35908C5AE42F1D1BE
:10C6200025002600B135D136FF35FF3629680029AF
:10C6300006D02079FFF7F8FE1C4AA35C013BA35407
:10C64000002308C5B542F1D12379194A5B009B5CF0
:10C65000002B02D02000FEF745F8200001F030FF4B
:10C6600022000023FC32136753679367D367BE220F
:10C670005200A3500432A3500432A3500432A350FA
:10C680000432A3500432A3500432A3500432A35006
:10C690000432A3500432A3500432A3500432A350F6
:10C6A000044AA354F7BDC046810200008202000084
:10C6B00059D2FF1F8302000080233D4A30B5116824
:10C6C000DB020B4313603B483B4B3C4C1A68017840
:10C6D000224009060A431A60394A1968394D14780C
:10C6E0002940A4052143196060211C682143196079
:10C6F0000178022908D00178012905D01178022992
:10C7000002D01178012904D180211C6849002143FD
:10C7100019600178032902D01178032903D18021FF
:10C72000186801431960C0211868090301431960A2
:10C730001178254B002937D124490978032933D1B1
:10C7400080211868090401431960214B21491960AF
:10C750008021214B49001960204B21491960214B50
:10C7600021491960C021214B49001960204B214902
:10C770001960214B21491960214B22491960127817
:10C78000002A03D1196801320A431A60F8221E4BAD
:10C7900052021B781B0313401C4A13431C4A1360AC
:10C7A0001C4B1D4A1A6030BD19681C480140CBE77C
:10C7B00040F000404C0AFF1F44F00040FFFFFFFC28
:10C7C0004B0AFF1FFFFF3FFF8C0003404A0AFF1F79
:10C7D000CC000340C00B0020D0000340D400034035
:10C7E0009A3E6A07D8000340000089040401034010
:10C7F000080103407A3E6A070C0103400080890467
:10C8000080000340CC240000480AFF1F25080000D8
:10C81000B8000340DC0003402FFCA601FFFF7FFFB0
:10C82000F8B5022304005C4998435C4A5C4E5D4DB8
:10C830005D4B55D180278030086011683F0331403F
:10C84000394311602A78002A65D1872212031A60C1
:10C85000564B574A57491A608022574B52011B7852
:10C86000564D9B18564A574E1360574A574B002C4B
:10C8700056D15748086003211460564A08002A60C0
:10C88000554A1A6001F024FD544B3360FF23544A8B
:10C8900011680B431360534B534A1A60534B544A6D
:10C8A0001A60544B544A1A60544B554A1A60554BFF
:10C8B000554A1A60554B564A1A60564B564A1A60EA
:10C8C000564B574A1A60574B574A1A60E0222B685A
:10C8D0009343012C5BD11A00202313432B60F8BD36
:10C8E0008020C002042C0CD8C0277F000F60116884
:10C8F0003140014311602A78002A0ED18822D202E9
:10C90000A5E780277F000F60116831400143116067
:10C910002A78002A01D1454A99E78822920296E7AF
:10C920004348012C07D1434F0F6043491160CA228D
:10C9300092022A601DE0022C0DD1404F0F603E494B
:10C940001160CA2292022A6021001860200001F0C2
:10C95000BFFC3B4B99E7E71E012F11D8394F274306
:10C960000F603949394F0F60CA2189022960324965
:10C97000116002211860080001F0AAFC344B84E722
:10C98000344F27430F6034491160124AD1E7022C1B
:10C99000A4D11A004023A0E7E0000340D8000340E0
:10C9A000FFFFE3FF4B0AFF1F90000340B00003406E
:10C9B0000200000100000340440AFF1F4000034042
:10C9C0009400034050000340480003404C000340E3
:10C9D0000080067800280B0007EE75368066082276
:10C9E0000C00034054000340A49C5C5458000340D6
:10C9F0004C4443425C00034041524C4660000340BB
:10CA0000403A342E6400034028007F5568000340FC
:10CA10004F49433D6C00034037312B4C70000340BD
:10CA200046403A34740003402E28221C004504007E
:10CA3000D6BE898E0180063D555555370280063D8C
:10CA4000804508220080069804000340545A9850FC
:10CA5000805508220080064255555500294BF0B5F7
:10CA60009C462949294A2A4C2A4D2B4B02281CD185
:10CA700066467E3030600868284F074080200003FB
:10CA800007430F602649097800290AD11060E02188
:10CA9000244A2260244A2A601A688A4311004022EC
:10CAA0002DE08021C9021160F1E7C02766467F00B2
:10CAB00037600E68194F3E408027FF0237430F60F2
:10CAC0001749097800290ED18821C902116001286F
:10CAD0000CD0E021154A1043154A20602A601A68DC
:10CAE0008A431A60F0BD80218902EFE7E021114AF4
:10CAF0002260114A2A601A688A43110020220A43E0
:10CB0000EFE7C046E0000340D80003409000034038
:10CB1000000003405000034040000340FFFFE3FFDC
:10CB20004B0AFF1F0280063D8045082200800698C0
:10CB3000805508220180063D80660822F7B5434BE8
:10CB4000434A444C1360444E444B01292BD180216D
:10CB5000256809033540294321604149414E196048
:10CB60003178414D002926D12978032923D180210C
:10CB70001C680904214319603C493D4C08600E21A2
:10CB8000002021603B4908601530FF3008603A48BA
:10CB900001902F78F8B2072F45D801F0DDFA101078
:10CBA000443D4144131321680E408021C9023143A2
:10CBB00021603249D2E71968314C2140DBE7019806
:10CBC00040000190019F781E0190002FFAD12D485E
:10CBD00000680F6027602C4C000C1C60A0246400CF
:10CBE0000C60CA21890211602849C0B20C78012C5E
:10CBF0001BD11168DF34A1430C00202121431160B7
:10CC00003278002A1DD12A78032A1AD18022196885
:10CC100012040A431A60FEBD0320019F7843D0E747
:10CC200001988000CDE70198CBE70978E02402293C
:10CC300004D11168A1430C004021DFE71168A14332
:10CC4000DDE71A680E490A40E4E7C0461000030019
:10CC500040000340D8000340FFFFE3FF8C00034087
:10CC60007F4053004B0AFF1F4A0AFF1FB4000340D6
:10CC7000A0000340A4000340102700007F40730081
:10CC8000FFFF7FFFF400034040401000490AFF1FF0
:10CC900010B500210220FFF751FF0E4B0930C0B242
:10CCA000187000214220FFF749FF0B4B0930C0B23A
:10CCB000187001210220FFF741FF084B0230C0B27B
:10CCC000187001214220FFF739FF054B0230C0B236
:10CCD000187010BD440AFF1F450AFF1F460AFF1FB8
:10CCE000470AFF1F1D4BF0B59C4666461C491D4A6E
:10CCF0000F681D4C1D4B1E4D37403F281AD1802612
:10CD0000F6023E430E6011680C40602114601A6800
:10CD10008A431A601A68154080222A43F8211A6053
:10CD2000144A4902136800031B0508401B0D1843F1
:10CD30001060F0BDA026F6023E430E6011680C4064
:10CD40008021090121431160602220211C68944345
:10CD5000214319601A682A40E0E7C046FF7FF8FFC8
:10CD600014F00040CC000340FFF3FFFFDC00034061
:10CD70007FFCFFFFB800034000220B4B10B51A7078
:10CD80000A4B02321A70FFF797FC094B1878C0B2B1
:10CD9000FFF7A8FF074C2078C0B2FFF741FD2078CD
:10CDA000C0B201F085FB10BD4B0AFF1F4C0AFF1FEC
:10CDB000480AFF1F490AFF1FF8B51E4B80261A6854
:10CDC000002015003540324232D101241A681A4F32
:10CDD00032431A603B680630A3433B6001F0C0FC5D
:10CDE000164B1A6816431E603A680A2614433C60C4
:10CDF00080271C00BF00124B1B683B4211D1013E33
:10CE0000F6B2FF2E09D17E220E4B1D682368ED0B72
:10CE1000154093432B43236005E0082001F0A0FC5C
:10CE2000E9E7002EEFD1802223686808934323604E
:10CE3000F8BDC046C4F000405CF0004018F000406F
:10CE400068F0004060F0004010B5FFF721FFFFF7E9
:10CE5000B3FF10BD10B578220021034800F0CEFECC
:10CE600001F0BEF9002010BD0885FF1F10B501F0CC
:10CE7000B7F9002010BD10B501F0B2F9002010BDC7
:10CE8000F0B5002304000C270C4D3E005E43705D9E
:10CE9000A04211D000280AD12F0078373B78083300
:10CEA0003B70AB195870745559609A60F0BD0133EE
:10CEB0000A2BEAD10320F9E70720F7E70885FF1FCF
:10CEC00070B500250C26104B34006C43E25C8242A6
:10CED00013D1190078310A781C19F8320A7001F060
:10CEE00077F909222100521B72430C31200000F017
:10CEF000D9FE01F0B5F9002070BD002A02D001353D
:10CF00000A2DE1D11220F7E70885FF1F00207047A6
:10CF1000002070471F22030010B5904309D1183A32
:10CF200013400724044978310A78A24313430B7055
:10CF300010BD00230620F4E70885FF1F064B0749B4
:10CF400078331B780A6806485B0702401B0B1343C3
:10CF500000200B607047C0460885FF1F1CF0004092
:10CF6000FFFFC1FF034A044913680F200B40136001
:10CF70007047C04614F00040FFFFFFFBFF220B4B41
:10CF8000191DCA7719004B310A70190073310A70E4
:10CF900019009B310A701900EB33C3311A700A7003
:10CFA0000022034B1A605A607047C04628C0FF1F1A
:10CFB000D888FF1F70B5052819D8282343430D488A
:10CFC0000F21C0180430C57F0124280000F0CAFFDB
:10CFD000C9B28C4028000F2100F03EFF064BA4B2DE
:10CFE0001B8821001818C0B201F0FAFA70BD03487E
:10CFF000FCE7C04628C0FF1FC008FF1F11C000008B
:10D00000094B02005B68002B0BD00020934203D039
:10D01000DB68002B01D1054870479342F8D100200E
:10D02000FAE70348F8E7C046D888FF1F15C000009C
:10D0300013C00000084B5B68002B0AD01A788A42A4
:10D0400002D1036000207047DB68002BF6D1034853
:10D05000F9E70348F7E7C046D888FF1F15C000006E
:10D0600013C00000F7B52823040000262B491A003E
:10D07000724301928A5C002A16D10120284D019B3F
:10D08000EB18DA606269D91C5A616268C8775A6025
:10D09000228C1A84042A0CD82100019810311030F7
:10D0A000401900F0FFFD06E00136062EDFD11D48D5
:10D0B000FEBDA2689A6001F02BF92823002173437A
:10D0C000EB185A699861D9618A421CDA52005208F9
:10D0D000019B1548EF1823333900EB1801F000FAD3
:10D0E000002818D128235E43AB5DAD1923700435A9
:10D0F000EB7F0434E3770D4B5A68002A07D1100008
:10D100001F605F60D4E7FA239B005A43E0E71A6888
:10D110001F60D760CCE70648CAE7C0464AC0FF1F79
:10D1200028C0FF1F14C00000D55AFF1FD888FF1F5A
:10D1300018C00000F0B58DB01F0012AB16001C889F
:10D140000191050001F044F801F0D2F901F088F8EE
:10D15000002D28D0002E28D0002C0BD0042C1DD957
:10D16000200001F0EDF9002821D0049022003900C0
:10D1700000F098FD02AB1C84019B02A80793039664
:10D18000FFF770FF02AB041E0AD01B8C042B02D9E0
:10D19000049801F035FA20000DB0F0BD06A8E5E7CF
:10D1A0001B782B70F7E7034CF5E7034CF3E7034CD0
:10D1B000F1E7C04611C0000012C0000005C0000029
:10D1C000030030B5C21C002500200024D0779C61EC
:10D1D000DD615861586098601884D86030BD0000E7
:10D1E00070B50024FF26064D2800FFF7E9FF2B1D30
:10D1F000DE772C700134A4B22835062CF4D170BD32
:10D2000028C0FF1F184A70B5536815680400AB4268
:10D2100013D1002B25D0834216D100231360536015
:10D22000012905D1238C042B02D9A06801F0E8F96B
:10D230002000FFF7C5FF002070BD834201D1C36805
:10D24000EDE7D868002801D10848F5E7C668A04294
:10D2500004D1DE60A542E3D11360E1E703003000B2
:10D26000F0E70348E8E7C046D888FF1F15C0000074
:10D2700013C0000007B5017801A8FFF7DBFE002806
:10D280000CD101984368002B04D0018C042906D9E5
:10D290008068984701210198FFF7B4FF07BD10305F
:10D2A000F7E70000F7B503780500052B03D9FF2346
:10D2B00003701B48FEBD28245C431A4BE418200071
:10D2C000FFF79EFE002801D01748F3E70127231D32
:10D2D000DE7F0F21300000F045FE3B00C9B28B40DD
:10D2E00030009BB20F21019300F0B6FD0F4B019966
:10D2F0001B881818C0B201F0D3FA00280ED03900EC
:10D300002000FFF77FFF0028D4D1300001F0F8F8AB
:10D310000028D9D1FF2300202B70CBE76060F9E70C
:10D3200011C0000028C0FF1FFFFF0000C008FF1F42
:10D33000F7B50500019105282ED828264643174B3E
:10D34000F6183000FFF75CFE041E1ED17669002E31
:10D350001DDA76007308009300F0DAFF282100231D
:10D3600069430E4D02006D18AE69EF699F420CD102
:10D3700086420AD8921BBB41002B06D100998A42F3
:10D3800003D8019B8E19301A18602000FEBDFA20C8
:10D39000800070430090DFE7014CF6E728C0FF1FD4
:10D3A00011C00000054B10B51A88FF2A05D118805E
:10D3B000002103487F3A01F06BFA10BD1C77FF1F74
:10D3C000C8D0FF1FF8B50D1E1BD000230122290075
:10D3D00019410F001740114215D09A400C490D4ECB
:10D3E0000C8897B2041B2401E418E400A359002B15
:10D3F00002D03219506898470023335134196360C2
:10D400007D402800F8BD0133102BE0D1F8E7C0467D
:10D410001C77FF1FC8D0FF1FC8220023FF2005492B
:10D420005200C85428339342FBD10022024B1A60A9
:10D430005A6070475BCFFF1FE08BFF1F0300C21CC9
:10D440000020D0775861586098601884D860704781
:10D4500070B50024FF26064D2800FFF7EFFF2B1DB7
:10D46000DE772C700134A4B228350A2CF4D170BDBB
:10D4700038CFFF1FF0B505002026184B87B0049366
:10D48000049B002B03D11124200007B0F0BD002124
:10D4900002220B0001910091052000F051FF0223B0
:10D4A0000F490A681A42FCD10596059C631E059334
:10D4B000002CFAD10B4A1368002BFCDA0F276F44BB
:10D4C0000121380001F084F83B782B42DCD00520A4
:10D4D00001F046F9049B013B0493D1E7FFFFFF07EE
:10D4E00090C8004000C8004007B500F071FE8023DE
:10D4F0000821DB059A6A0191002A01D10739996256
:10D5000002210C4B19600199481E01900029FAD1A3
:10D5100003311960053101910199481E01900029DC
:10D52000FAD11960002A02D18023DB059A6200F04B
:10D5300097FE07BD00C0004010B5024801F078F822
:10D54000002010BDD083FF1F30B5234B05201A7873
:10D5500085B0022A01D81878C0B2204B1A68204B37
:10D560009A4234D101210023009101F039F91D4B79
:10D570001D4A02259A6300221A6510325A658022DC
:10D58000C4219D65194B1A48D202DA6789004358B5
:10D59000184A80241A4080231B04134343506423F9
:10D5A00041200393E40500F054F9402000F051F9C4
:10D5B0006562039D6B1E0393002DFAD10323636202
:10D5C000FFF792FFA562FFF7B7FF05B030BD00235C
:10D5D00001210093C9E7C0464A0AFF1F9871FF1F47
:10D5E0006B00020800C80040050001FF04E100E0F4
:10D5F00000E100E0FFFF00FF10B5054B1860FFF7EA
:10D60000A3FF00211320034AFFF73AFC002010BDBE
:10D610009871FF1FA95DFF1FF0B5040085B003924C
:10D620000291FBF79DFD882263035B0B52051A43B1
:10D630008023DB059D6AF82327001B040600019266
:10D640001F401C4206D080221D4B52025F621968A7
:10D650000A431A60002D0BD100F0BAFD0222194BCB
:10D660001A608023DB055A62013A9A6200F0F8FDE5
:10D670000023039A93421BD1002D0AD100F0A8FD8C
:10D68000104B03221D608023DB055A629D6200F06F
:10D69000E7FD002F06D00022094B0B495A621A6899
:10D6A0000A401A603000FBF771FD002005B0F0BDA4
:10D6B000019A0299D2181278CA540133D9E7C046A8
:10D6C00000C8004000C00040FFFFFEFFF0B52B4D3A
:10D6D00087B02B79019002910F200392002B4BD140
:10D6E00001272F71FBF73CFD009000F071FD8023B6
:10D6F0000224234EDB0534605C629F6200F0B0FDC3
:10D70000204B1F001A682242FCD120230493049B63
:10D710005A1E0492002BFAD11B4B1C001A68002AD7
:10D72000FCDA0120FFF7A6FE039A0299019801F0A6
:10D730008FF8022301903A681A42FCD12023059306
:10D74000059B5A1E0592002BFAD12368002BFCDAA8
:10D750000120FFF78FFE00F03BFD80230024032211
:10D76000DB0534605A629C6200F07AFD0098FBF79A
:10D770000DFD6B4618792C7107B0F0BDD083FF1FEB
:10D7800000C0004090C8004000C80040F0B58026AE
:10D7900085B00500FBF7E4FCF605B36A02240193AB
:10D7A000009000F015FD0123224F3C607462B362CB
:10D7B00000F056FD204B1E001A682242FCD12023A7
:10D7C0000293029B5A1E0292002BFAD11B4B1C00A3
:10D7D0001A68002AFCDA0120FFF74CFE280000F04E
:10D7E00067FF0223050032681A42FCD1202303930D
:10D7F000039B5A1E0392002BFAD12368002BFCDAFC
:10D800000320FFF737FE00F0E3FC80230022032112
:10D81000DB053A6059629A6200F022FD019B002B01
:10D8200001D1FFF761FE0098FBF7B0FCE8B205B04C
:10D83000F0BDC04600C0004090C8004000C8004095
:10D8400007B5000201910422000A01A9FFF73EFF7B
:10D850000EBD1F2807D8012380228340D20591687E
:10D860000B43936070473F2808D80123802220385B
:10D870008340D20551690B435361F3E75F28F1D828
:10D880000123802240388340D205116A0B43136282
:10D89000E8E71F2807D8012280218240C9058B684C
:10D8A00093438B6070473F2808D80122802120389D
:10D8B0008240C9054B6993434B61F3E75F28F1D878
:10D8C0000122802140388240C9050B6A93430B62D4
:10D8D000E8E71F2810D880230200DB05153A1968F5
:10D8E000012A06D820229143196019680A431A6058
:10D8F000704701228240F6E73F2811D880230200BA
:10D90000DB05353AD968032A06D810229143D9603D
:10D91000D9680A43DA60EBE7012220388240F5E754
:10D920005F28E5D842238022181A413B8340D20564
:10D93000516A99435162516A0B435362D8E7000020
:10D9400070B505001D4C01281CD1A022236892054A
:10D950005B015B0913432360194B1A491A68114094
:10D96000194A0A431A60402219680A431A60802340
:10D9700022685B051343154A2360136814490B4062
:10D98000136070BD0028F2D101000A2000F0D0FD24
:10D9900029000B2000F0CCFDC022094B9200196831
:10D9A0000A4340211A601A688A431A60B022236829
:10D9B00012065B015B0913432360D8E714F00040B3
:10D9C0001CF000407F00FEFF80FD010018F00040C9
:10D9D000FFFFF9FF174B184AD8211360174A890235
:10D9E0001360174B174A1A600023174A1360174A2F
:10D9F00011609A21164A89031160164A164911606E
:10DA0000164A174911600121164A1360164A13601D
:10DA1000164A1360164A1360164A1360164A1360BA
:10DA2000164A1360164A1360164A1160164A1360AC
:10DA30007047C046841E0000140AFF1F380AFF1FEB
:10DA400008F00040000C00060CF0004010F0004010
:10DA500014F0004018F00040404006011CF0004067
:10DA6000ABFF010020F0004024F000402CF000400B
:10DA700030F0004034F00040A0F00040A4F000403E
:10DA8000A8F00040B8F00040C4F000400023034A72
:10DA90001360034A1360034A1360704754F0004058
:10DAA00040F1004044F1004007B50320694600F012
:10DAB000FFFB684600F04CFC009B01981843431E96
:10DAC0009841C0B20EBD000070B50025194E8CB053
:10DAD000337802951C000395012B1FD0012002A969
:10DAE00000F0E6FB2C00A84218D1029B12490493D7
:10DAF000039B08AA05930193104B04A81B68069387
:10DB00000F4B1B68079300F0D3FE10220D4908A8A5
:10DB100000F0B6FDA84204D1FF23337020000CB002
:10DB200070BD01240749321D04A8347000F0C0FE06
:10DB3000F4E7C046208DFF1F1029001108290011AD
:10DB40000C2900112029001113B501246946012078
:10DB500000F0AEFB034B00940193FFF7B5FF2000EC
:10DB600016BDC046BB0B000010B5FFF78FFFFFF7D7
:10DB7000EBFF002802D0024B984710BDFEE7C046DD
:10DB8000E1A200000CB400B59DB0029106910949D4
:10DB90001EAB07910491084904CB059102A901939A
:10DBA00000F0EEFD0023029A13701DB008BC02B015
:10DBB0001847C046FFFFFF7F0802FFFF0EB400B505
:10DBC0000B499CB0079104910A491DAB05910A4984
:10DBD00004CB02900690086802A9019300F0D0FDE2
:10DBE0000023029A13701CB008BC03B01847C0464B
:10DBF000FFFFFF7F0802FFFF2077FF1FF0B5050042
:10DC000083074AD0541E002A44D0CEB20300032218
:10DC100002E00135013C3DD301332E701342F8D1AF
:10DC2000032C2FD9FF220A40150215432A0415435D
:10DC30000F2C35D92700103F3F093E01B4461E0086
:10DC40001A0010366644156055609560D560103234
:10DC5000B242F8D10F260C2201373F012640DB19D2
:10DC60003700224217D03E1FB608B400A4461A005F
:10DC70001C1D644420C2A242FCD103240136B6001C
:10DC80009B193C40002C05D0C9B21C1919700133F6
:10DC90009C42FBD1F0BD3400F4E714000300BFE761
:10DCA0002700E0E7F0B5C64600B50F2A43D90B00C0
:10DCB000032603431E400C000300002E40D1150034
:10DCC000103D2D09AC462D01A846804400E03B00E4
:10DCD000676825685F60E7681D60DF601F00A568F2
:10DCE00010379D6010344345F1D165460F230C2455
:10DCF00001352D01491913404519144223D08C597F
:10DD0000AC5104369C1B032CF9D80324043B9B081C
:10DD100001339B002240ED18C918561E002A07D077
:10DD2000002300E02300CA5C5C1CEA549E42F9D147
:10DD300004BC9046F0BD0500561E002AF0D1F7E75E
:10DD4000561E0500ECE71A00F6E7C04630B5032A78
:10DD50000CD903000B439B071CD103680C68A3423A
:10DD600018D1043A04300431032AF6D8551E002A8B
:10DD70000ED002780C7894420ED10135012301397E
:10DD800004E0C25C0133CC5CA24205D1AB42F8D1C5
:10DD9000002030BD551EECE7101BFAE7F0B5C64673
:10DDA00000B588420CD98B18984209D2531E002A1C
:10DDB00003D0CA5CC254013BFBD204BC9046F0BD08
:10DDC0000F2A0CD80500561E002AF6D0002300E0CA
:10DDD0002300CA5C5C1CEA549E42F9D1EDE70B00BB
:10DDE000032603431E400C000300002E2ED1150015
:10DDF000103D2D09AC462D01A846804400E02B00C3
:10DE00001D00276810351F6067685F60A7689F6006
:10DE1000E7681034DF604345F1D165460F230C24D9
:10DE200001352D01491913404519144211D08C595F
:10DE3000AC5104369C1B032CF9D80324043B9B08EB
:10DE400001339B00ED18C9182240BCE7561E05009F
:10DE5000BCE71A00B7E7C046002243088B4274D3E0
:10DE600003098B425FD3030A8B4244D3030B8B42DB
:10DE700028D3030C8B420DD3FF22090212BA030CE4
:10DE80008B4202D31212090265D0030B8B4219D3C5
:10DE900000E0090AC30B8B4201D3CB03C01A5241E5
:10DEA000830B8B4201D38B03C01A5241430B8B422D
:10DEB00001D34B03C01A5241030B8B4201D30B0316
:10DEC000C01A5241C30A8B4201D3CB02C01A52413D
:10DED000830A8B4201D38B02C01A5241430A8B4200
:10DEE00001D34B02C01A5241030A8B4201D30B02E9
:10DEF000C01A5241CDD2C3098B4201D3CB01C01A03
:10DF0000524183098B4201D38B01C01A524143090C
:10DF10008B4201D34B01C01A524103098B4201D3FA
:10DF20000B01C01A5241C3088B4201D3CB00C01A67
:10DF3000524183088B4201D38B00C01A52414308DF
:10DF40008B4201D34B00C01A5241411A00D2014604
:10DF5000524110467047FFE701B5002000F0F0F88D
:10DF600002BDC0460029F7D076E7704703460B4351
:10DF70007FD4002243088B4274D303098B425FD3C2
:10DF8000030A8B4244D3030B8B4228D3030C8B42EE
:10DF90000DD3FF22090212BA030C8B4202D31212D4
:10DFA000090265D0030B8B4219D300E0090AC30BA9
:10DFB0008B4201D3CB03C01A5241830B8B4201D356
:10DFC0008B03C01A5241430B8B4201D34B03C01A3F
:10DFD0005241030B8B4201D30B03C01A5241C30AB7
:10DFE0008B4201D3CB02C01A5241830A8B4201D328
:10DFF0008B02C01A5241430A8B4201D34B02C01A12
:10E000005241030A8B4201D30B02C01A5241CDD2B6
:10E01000C3098B4201D3CB01C01A524183098B4201
:10E0200001D38B01C01A524143098B4201D34B01EA
:10E03000C01A524103098B4201D30B01C01A52414D
:10E04000C3088B4201D3CB00C01A524183088B42D4
:10E0500001D38B00C01A524143088B4201D34B00BD
:10E06000C01A5241411A00D201465241104670472F
:10E070005DE0CA0F00D04942031000D34042534034
:10E0800000229C4603098B422DD3030A8B4212D3F4
:10E09000FC22890112BA030A8B420CD38901921126
:10E0A0008B4208D3890192118B4204D389013AD063
:10E0B000921100E08909C3098B4201D3CB01C01A38
:10E0C000524183098B4201D38B01C01A524143094B
:10E0D0008B4201D34B01C01A524103098B4201D339
:10E0E0000B01C01A5241C3088B4201D3CB00C01AA6
:10E0F000524183088B4201D38B00C01A5241D9D2BE
:10E1000043088B4201D34B00C01A5241411A00D23E
:10E110000146634652415B10104601D34042002B3A
:10E1200000D54942704763465B1000D3404201B5B9
:10E13000002000F005F802BD0029F8D016E770476E
:10E140007047C04602B47146490849000956490063
:10E150008E4402BC7047C04602B47146490849006B
:10E16000095C49008E4402BC7047C04600000000B4
:10E1700001B40248844601BC604700BF851201001B
:10E1800001B40248844601BC604700BFA9D8000022
:10E1900001B40248844601BC604700BFCD090100BC
:10E1A00001B40248844601BC604700BF61B500006D
:10E1B00001B40248844601BC604700BF5D6B0100AA
:10E1C00001B40248844601BC604700BF4DF900001D
:10E1D00001B40248844601BC604700BF75A9000035
:10E1E00001B40248844601BC604700BF21A9000079
:10E1F00001B40248844601BC604700BF49CC00001E
:10E2000001B40248844601BC604700BF01D700004A
:10E2100001B40248844601BC604700BF6D0B010099
:10E2200001B40248844601BC604700BFED160100FE
:10E2300001B40248844601BC604700BFB912010026
:10E2400001B40248844601BC604700BFCD360100DE
:10E2500001B40248844601BC604700BFDD0A0100EA
:10E2600001B40248844601BC604700BF9DA900007C
:10E2700001B40248844601BC604700BFF90D0100AB
:10E2800001B40248844601BC604700BFED0A0100AA
:10E2900001B40248844601BC604700BFCD0C0100B8
:10E2A00001B40248844601BC604700BF71B0000061
:10E2B00001B40248844601BC604700BFE1AC0000E5
:10E2C00001B40248844601BC604700BF250C010030
:10E2D00001B40248844601BC604700BF2D11010013
:10E2E00001B40248844601BC604700BFF9ED00005C
:10E2F00001B40248844601BC604700BF1907010011
:10E3000001B40248844601BC604700BFAD0F010064
:10E3100001B40248844601BC604700BF494901007E
:10E3200001B40248844601BC604700BF614200005E
:10E3300001B40248844601BC604700BF6D40010043
:10E3400001B40248844601BC604700BF496D01002A
:10E3500001B40248844601BC604700BF79EE011158
:10E3600001B40248844601BC604700BFBD0B0100F8
:10E3700001B40248844601BC604700BF0534010077
:10E3800001B40248844601BC604700BFEDD60000DE
:10E3900001B40248844601BC604700BF0108010087
:10E3A00001B40248844601BC604700BF85400100BB
:10E3B00001B40248844601BC604700BF8D82000062
:10E3C00001B40248844601BC604700BFEDB60000BE
:10E3D00001B40248844601BC604700BFE94C01001B
:10E3E00001B40248844601BC604700BF61370100A8
:10E3F00001B40248844601BC604700BF8944000064
:10E4000001B40248844601BC604700BF413F0000A0
:10E4100001B40248844601BC604700BF5DB0000003
:10E4200001B40248844601BC604700BF0D520100A0
:10E4300001B40248844601BC604700BF6911010075
:10E4400001B40248844601BC604700BFC716010002
:10E4500001B40248844601BC604700BF095A00006D
:10E4600001B40248844601BC604700BF8D11010021
:10E4700001B40248844601BC604700BFB3520100AA
:10E4800001B40248844601BC604700BFC1F70000E8
:10E4900001B40248844601BC604700BF9D6B010087
:10E4A00001B40248844601BC604700BF6D0E010004
:10E4B00001B40248844601BC604700BF89140100D2
:10E4C00001B40248844601BC604700BF79D5000012
:10E4D00001B40248844601BC604700BFB931000066
:10E4E00001B40248844601BC604700BFA946010050
:10E4F00001B40248844601BC604700BFD544010016
:10E5000001B40248844601BC604700BF11470100C6
:10E5100001B40248844601BC604700BFC1D8000076
:10E5200001B40248844601BC604700BF8B52010021
:10E5300001B40248844601BC604700BFF1210111CB
:10E5400001B40248844601BC604700BF3D4B010056
:10E5500001B40248844601BC604700BF0966000060
:10E5600001B40248844601BC604700BFF90C0100B9
:10E5700001B40248844601BC604700BFE9170100AE
:10E5800001B40248844601BC604700BF53B9000093
:10E5900001B40248844601BC604700BFB1100100CD
:10E5A00001B40248844601BC604700BFED6B010026
:10E5B00001B40248844601BC604700BF6DF600000C
:10E5C00001B40248844601BC604700BFC115010088
:10E5D00001B40248844601BC604700BF3D710100A0
:10E5E00001B40248844601BC604700BFC94A01002B
:10E5F00001B40248844601BC604700BF21440000CA
:10E6000001B40248844601BC604700BF014C0100D0
:10E6100001B40248844601BC604700BF597601003E
:10E6200001B40248844601BC604700BF110C0100E0
:10E6300001B40248844601BC604700BF0972010072
:10E6400001B40248844601BC604700BFA512010026
:10E6500001B40248844601BC604700BF516B010011
:10E6600001B40248844601BC604700BFE9100100C4
:10E6700001B40248844601BC604700BFE9D40000F1
:10E6800001B40248844601BC604700BFCD4C010084
:10E6900001B40248844601BC604700BFE1010100AB
:10E6A00001B40248844601BC604700BF491601001E
:10E6B00001B40248844601BC604700BFA96F010055
:10E6C00001B40248844601BC604700BFC1A50000F8
:10E6D00001B40248844601BC604700BFD9B00000C5
:10E6E00001B40248844601BC604700BFF535010013
:10E6F00001B40248844601BC604700BF1D4D0100C3
:10E7000001B40248844601BC604700BFE1B000008C
:10E7100001B40248844601BC604700BF01340100D7
:10E7200001B40248844601BC604700BFE53A0100DD
:10E7300001B40248844601BC604700BF1DB0000020
:10E7400001B40248844601BC604700BF2D6C010043
:10E7500001B40248844601BC604700BF811101003A
:10E7600001B40248844601BC604700BF0189000033
:10E7700001B40248844601BC604700BF7912010021
:10E7800001B40248844601BC604700BF817D01118D
:10E7900001B40248844601BC604700BFF93501005E
:10E7A00001B40248844601BC604700BFDD3F000061
:10E7B00001B40248844601BC604700BF594F0100C4
:10E7C00001B40248844601BC604700BF797A031156
:10E7D00001B40248844601BC604700BF893701008C
:10E7E00001B40248844601BC604700BFC56D01000A
:10E7F00001B40248844601BC604700BFE92700001D
:10E8000001B40248844601BC604700BFB9B00000B3
:10E8100001B40248844601BC604700BFE512010014
:10E8200001B40248844601BC604700BFDD1301000B
:10E8300001B40248844601BC604700BF09340100AE
:10E8400001B40248844601BC604700BF112B0000A0
:10E8500001B40248844601BC604700BF4D7401000A
:10E8600001B40248844601BC604700BFC96C010086
:10E8700001B40248844601BC604700BFD94F010083
:10E8800001B40248844601BC604700BFDD0C0100B2
:10E8900001B40248844601BC604700BF154D010029
:10E8A00001B40248844601BC604700BFB544010082
:10E8B00001B40248844601BC604700BFC53F000068
:10E8C00001B40248844601BC604700BFC95C010036
:10E8D00001B40248844601BC604700BF45140100F2
:10E8E00001B40248844601BC604700BF8576010040
:10E8F00001B40248844601BC604700BFADFF000080
:10E90000FFFF000004056222000100011111111136
:10E91000111100000000000000000000FF000100D5
:10E92000010000000000000000000000141513FFAB
:10E93000FFFFFFFFFF0000003B0001080F000F007A
:10E940000000E80302000000045D03110100000064
:10E95000BC3F031102000000225D03110100000012
:10E960001672FF1F02000000105D0311010000007D
:10E97000B085FF1F02000000225D031101000000AE
:10E980001572FF1F020000000E5D03110100000060
:10E99000C685FF1F02000000225D03110100000078
:10E9A0001472FF1F02000000085D03110100000047
:10E9B0009C71FF1F02020200FF0000000200000025
:10E9C000045D031101000000D03F031102000000AC
:10E9D000225D0311010000005C72FF1F02000000B5
:10E9E000065D0311000000000000000002000000AE
:10E9F0001E5D031103000000D885FF1F20000000EA
:10EA0000010405000010010002000000045D031174
:10EA1000010000005840031102000000225D0311B4
:10EA200001000000A073FF1F0200000070400311EE
:10EA300001000000D088FF1F02000000225D0311CA
:10EA4000010000009F73FF1F020000006E400311D1
:10EA500001000000D83F031102000000225D0311F5
:10EA6000010000009E73FF1F020000006C400311B4
:10EA700001000000E53F031102000000225D0311C8
:10EA8000010000009D73FF1F020000006A40031197
:10EA900001000000F33F031102000000225D03119A
:10EAA000010000009C73FF1F02000000684003117A
:10EAB000010000000540031102000000225D031167
:10EAC000010000009B73FF1F02000000664003115D
