:020000041100E9
:10B0000003B40148019001BD7511000003B401486B
:10B01000019001BD75A9000003B40148019001BD74
:10B02000C93E000003B40148019001BD9DA9000084
:10B0300003B40148019001BDB30E000003B4014800
:10B04000019001BD8946FF1F03B40148019001BD75
:10B050006189000003B40148019001BD1907010096
:10B0600003B40148019001BDA9D8000003B4014810
:10B07000019001BDB352010003B40148019001BD2C
:10B080000D52010003B40148019001BD8B52010033
:10B0900003B40148019001BDC1A5000003B40148FB
:10B0A000019001BD9D6A000003B40148019001BDFB
:10B0B0006136010003B40148019001BDC7160100CB
:10B0C00003B40148019001BD8F02010003B401489F
:10B0D000019001BDE94C010003B40148019001BD9C
:10B0E000116E000003B40148019001BD8BB900004E
:10B0F00003B40148019001BDD1D4000003B401485C
:10B10000019001BD912FFF1F03B40148019001BDC3
:10B110005533FF1F03B40148019001BDADAE0000DF
:10B1200003B40148019001BD456B010003B401481F
:10B13000019001BDCD4C010003B40148019001BD57
:10B1400085C1000003B40148019001BD09B80000A9
:10B1500003B40148019001BD2DFC000003B4014877
:10B16000019001BD25E7000003B40148019001BD35
:10B17000EDB8000003B40148019001BD3148000062
:10B1800003B40148019001BDC53F000003B401486C
:10B19000019001BDF5D5000003B40148019001BD47
:10B1A000F1FA000003B40148019001BD693CFF1FA2
:10B1B00003B40148019001BD9946000003B4014861
:10B1C000019001BD1547000003B40148019001BD85
:10B1D000C5F0000003B40148019001BD79F40000FE
:10B1E00003B40148019001BD63EC000003B40148C1
:10B1F000019001BD05FF000003B40148019001BDAD
:10B200003161000003B40148019001BDD93BFF1F2B
:10B2100003B40148019001BD59E4000003B40148A2
:10B22000019001BDD5E4000003B40148019001BDC7
:10B2300001BF000003B40148019001BD21F10000ED
:10B2400003B40148019001BD39B8000003B40148BE
:10B25000019001BD77F1000003B40148019001BDE8
:10B26000C1E2000003B40148019001BD154D010089
:10B2700003B40148019001BD8DE3000003B401480F
:10B28000019001BD5511010003B40148019001BDB9
:10B29000A5FD000003B40148019001BDF54E010079
:10B2A00003B40148019001BD434D010003B40148BE
:10B2B000019001BD2526000003B40148019001BDA5
:10B2C000C94A010003B40148019001BD691F000093
:10B2D00003B40148019001BD5D17000003B40148AB
:10B2E000019001BD3D4B010003B40148019001BD37
:10B2F0005952010003B40148019001BD51250000DD
:10B3000003B40148019001BD014C010003B40148A0
:10B31000019001BD594F010003B40148019001BDE6
:10B320001D4B010003B40148019001BD8D120000C6
:10B3300003B40148019001BD4D1F000003B4014852
:10B34000019001BD5522000003B40148019001BDE8
:10B35000DD52010003B40148019001BD1D4D010003
:10B3600003B40148019001BD090E000003B4014877
:10B37000019001BD810E000003B40148019001BDA0
:10B38000017F000003B40148019001BDE1170000F6
:10B3900003B40148019001BD7918000003B40148CD
:10B3A000019001BDD949010003B40148019001BDDC
:10B3B0001928000003B40148019001BDB117000035
:10B3C00003B40148019001BDE928000003B401481D
:10B3D000019001BD5549010003B40148019001BD30
:10B3E0004551010003B40148019001BD1128FF1F20
:10B3F00003B40148019001BD291C000003B40148B9
:10B40000019001BD3123FF1F03B40148019001BD2C
:10B41000851F000003B40148019001BD11470100E0
:10B4200003B40148019001BDAB22FF1F03B40148E2
:10B43000019001BD8522FF1F03B40148019001BDA9
:10B44000A946010003B40148019001BDE548000090
:10B4500003B40148019001BD2951010008B500283D
:10B4600002D000F03DFA00E01220694608706A46FA
:10B4700001210248FFF7C4FD002008BD052000009F
:10B4800070B50C460546FFF7C1FD21462846FFF77B
:10B49000C3FD0446FFF7C6FD204670BDFEB5089DFE
:10B4A000099C1746002874D0002972D0002C02D0C5
:10B4B000012C02D003E02A2201E0FF220732921D74
:10B4C0000192354A0E461770344A106034480370B2
:10B4D0003448057034480470002445E0A120800001
:10B4E000254645432D48A121006889002818FFF70B
:10B4F0009FFD2A482D49006862002818FF308130DE
:10B50000C6620198361800208854511848702649A0
:10B51000097800293BD0FF211131009121461C20E0
:10B520004143234800220D182A764254E0B2009984
:10B53000FFF784FD686000202872E0B201220099C4
:10B54000FFF77CFDE86000202874E0B20222009939
:10B55000FFF774FD6861696800291AD0E96800295D
:10B5600017D0002815D0641CBC42B7DB00200F4A5E
:10B57000104D0146203283009C186580401CD15438
:10B58000C0B261701028F6D30020FEBD01E0342166
:10B59000C3E71220F9E700001409FF1F3409FF1F59
:10B5A0001509FF1F1609FF1F1709FF1F0499FF1F29
:10B5B000046AFF1FFFFF000010B5FF2815D0002907
:10B5C00013D0A1229200094B50431A688218FF320F
:10B5D000C132948B8C80128B0A801A688018FF30DD
:10B5E000C130C28BCA80408B488010BD3409FF1F18
:10B5F000F8B5724D0028AA7916D0012A01D0032A85
:10B6000012D16F490B78FF2B0ED14B78FF2B0BD14A
:10B610008B78FF2B08D1CB78FF2B05D10B79FF2B33
:10B6200002D14979FF2930D066490B78012B1DD012
:10B630000026654C0E702178092931D00A292FD0B7
:10B640000B292DD00C292BD00D2929D0052927D045
:10B65000062925D0A97B00290AD0012908D0032971
:10B6600006D0022904D004290FD101E00C20F8BD36
:10B67000002A05D0012A03D0022A01D0032A04D1CE
:10B68000524F002877D0012801D01220F8BDA88899
:10B69000012805D0FFF7BAFC2078002802D01AE074
:10B6A0002120F8BDA87B0300FFF7CEFC050408109D
:10B6B0000C082400012020701F200AE002202070C6
:10B6C000202006E004202070222002E003202070C9
:10B6D0002120FFF7BFFC2078282101280DD0022867
:10B6E0000BD0042809D0032807D0072810D0082839
:10B6F0000ED01DE026701E20EBE735480660297548
:10B700000120A880FFF7ACFC002822D0AE800FE01B
:10B7100030488069808D80060AD52F480278002A3B
:10B7200006D1AA7B032A06D0022A04D0002A02D01E
:10B73000FFF778FCB4E70122AA8002220270297583
:10B74000140321463878FFF791FC21463878FFF73B
:10B7500093FC22480078002809D021480121028862
:10B760007D20C0004243C9033878FFF78BFCFFF708
:10B7700059FC20E0FFE7FFF749FCAE80207807285E
:10B7800008D0082806D026701648FFF781FC1E2036
:10B79000FFF760FC10480178002900D006700121F5
:10B7A00049033878FFF762FCFFF73CFC0121C9032D
:10B7B0003878FFF75BFC0020F8BD0000A60BFF1FE8
:10B7C0006B09FF1F1A09FF1F1C09FF1F1B09FF1F21
:10B7D0004809FF1F6C68FF1F2309FF1F2109FF1F76
:10B7E0002C09FF1F00100040FFB585B017460D461D
:10B7F00004460E9EFFF70AFC29482946007804906B
:10B800002046202C00D22020202900D220210FAA5F
:10B810002CCA03950293019200963A46089BFFF7C3
:10B820003DFC00901F481E49448004980870012F79
:10B8300001D0042F25D11C4D1C4C2878217980275C
:10B84000C001B94308430321C0B289024018A08057
:10B85000324603A80F99FFF727FC26460C3601282D
:10B860000AD10398FFF726FC002805D101A9039807
:10B87000FFF726FC002809D00622691C3046FFF796
:10B8800025FCFFF7CFFB009809B0F0BD062201A907
:10B890003046FFF71BFCA0883843A080F1E700008A
:10B8A0001C09FF1FA60BFF1F7809FF1F6C11FF1F4C
:10B8B00010B5FB2908D8084B9A4205D81B2903D399
:10B8C000FF2349339A4201D2302010BD034B198225
:10B8D0005A82FFF701FC10BD480800008410FF1FCA
:10B8E000F8B53249097801292AD0022928D003293C
:10B8F00026D0042924D0052922D0062920D02C497D
:10B90000097802291CD004291AD0012918D003294A
:10B9100016D0062914D0072912D00178254C8C4660
:10B920002170467866708378A370C278E2700179DE
:10B9300021714079204D6071AF79012F02D008E06C
:10B940000C20F8BD6746EF712E726B72AA72E97215
:10B9500028730622E91D1948FFF7B8FB0622E91DE6
:10B960001748FFF7B3FB1748017801290BD121785D
:10B97000417061788170A178C170E178017121799D
:10B980004171617981711048017801290BD12178C9
:10B99000417061788170A178C170E178017121797D
:10B9A0004171617981710020F8BD00001C09FF1F01
:10B9B0002309FF1F6B09FF1FA60BFF1F7211FF1F3B
:10B9C0008A13FF1FBC0BFF1FD40BFF1FFFB50D46D3
:10B9D000A12189004843234981B009681E464418C3
:10B9E000002D09D0FF20D930015B0398814203D399
:10B9F000002E04D0012E02D0122005B0F0BDE07858
:10BA000000280AD00520C00127181748F9780078C7
:10BA1000801C814203D30720EFE70220EDE7FFF708
:10BA2000F5FAF878A91E401CF87003980870002EEB
:10BA300010D00120487020467C30091FFFF752FBD0
:10BA4000FFF7F0FA09480078082805D0072803D046
:10BA50000020D2E70220EDE700212046FFF748FB57
:10BA6000F6E700003409FF1F1509FF1F1C09FF1F1F
:10BA7000F8B5FFF743FB834D834AA8751178022977
:10BA800003D9002801D1012010708049002004460C
:10BA9000A9618300401CCC50FF28FADDA8697C49CD
:10BAA000882319507B49C1627B490978002902D05B
:10BAB00078491131C1620A210165117881637749A2
:10BAC000C161FFF721FBA969754848611920800110
:10BAD0008861084637228030C260082336220B6412
:10BAE000CA631E224A6436224260322202603B222E
:10BAF0000364C263282242644122C2643922826400
:10BB000032224365026528228265022202664222B1
:10BB1000C2651E22836642660A22C26620224267EE
:10BB2000422202675A22436102613C228261192249
:10BB300092010A605B4A0A63FF222D328A60CA6062
:10BB4000FF22F5320A61584A8A647D22D200574E9C
:10BB5000C267CE644A62564A8A623222CA650622A7
:10BB60004A658A65CA1DF932022513604D664B2568
:10BB7000ED008D660925CD664E4D0D678C674B67D0
:10BB8000AB10CB674C4FFF313E60474E86627D263F
:10BB9000F6008667642646620526C66202260663AC
:10BBA000C8264663846338205060444810644B20A4
:10BBB00080019061B000D061581010627D200001BA
:10BBC0005062D466956513665364D56514675367F0
:10BBD0001E2090663A4890673A485B008131D067F2
:10BBE0000B608B604860FA20C860400008614B2001
:10BBF000C000106328200E6548660620886633481A
:10BC00003149224A81603249803A11612F49314AD3
:10BC100080318A62304ACA62304981613049C162EA
:10BC200030490163294930484031886130492F4803
:10BC3000886026492F48803948602F484863234947
:10BC40002E48C039C8602F482D4AC2631F4A2E4B68
:10BC5000403A13632D4B8B621C4B2D49803BD963BB
:10BC60002C49D9602C4941632C49D1602C4981630E
:10BC70002C4901632C489863FFF74CFA0120FFF729
:10BC80004FFAF8BD6C68FF1F4A0AFF1F0004FF1F30
:10BC900088FFFF1F6E0400000C66FF1F3A070000BC
:10BCA00080C3C9019A02000050C30000280A0000A6
:10BCB0006A180000204E0000F009FF1F004000112C
:10BCC000DC05000040420F003542FF1F0001FF1F4E
:10BCD0002926FF1F975BFF1F755EFF1F3523FF1F80
:10BCE000C924FF1F5123FF1F0523FF1FB1B80011F7
:10BCF0000002FF1F713AFF1FB93FFF1F7529FF1F89
:10BD000081B400110000FF1F1D4FFF1FD13CFF1F1A
:10BD1000AD45FF1F093DFF1F5D29FF1FC53AFF1FEE
:10BD2000CDB900113D28FF1F094DFF1F70B5044616
:10BD3000FF30FF300230406F0D46012812D1282D10
:10BD400010D1A420005BE188401A1D4980B28842CE
:10BD500008D321466A3105220E46481FFFF7E6F94F
:10BD6000002818D017490020820052185278002A63
:10BD700016D0401CC0B21028F6D313480121890206
:10BD80000078FFF779F920790101104809188979BD
:10BD900002290DD00FE031462046FFF7CDF970BDE6
:10BDA00080002379421853800D5401205070E4E73D
:10BDB0004178491E41702046FFF7C4F970BD00006C
:10BDC000FF7F00002499FF1F1B09FF1F300DFF1F7D
:10BDD000F0B5054687B0E03004902846A0300390C7
:10BDE00040380590092080012E462818FF36E1369C
:10BDF000029030462030EF1DF9372C4680340190F8
:10BE0000AAE1E07A801E0300FFF71EF91A0E38221D
:10BE1000396BF538BF3892CFA93838383838FFF346
:10BE2000F2F1F03838EFEE38A07A012803D0284636
:10BE3000FFF78EF912E0CB488078002801D0162158
:10BE40003BE1608A401E0004000C60826FD081E1FB
:10BE5000A07A012804D02846FFF780F9A07279E182
:10BE6000C048C0780028ECD02846FFF77DF92A4664
:10BE700029462879C832C031FFF77CF96CE1A07AF5
:10BE8000012813D00498C07D012821D00498007E99
:10BE9000002879D02A4629462846D732B031E730E3
:10BEA000FFF76EF904990120C87555E1AD48C078D7
:10BEB000002805D00399012088710020E0673860D0
:10BEC000B8790128BDD106212846FFF75FF943E183
:10BED0002846FFF761F90128B9D10020B871012087
:10BEE000BCE7A07A012803D02846FFF75BF9B5E745
:10BEF0009C48C0780028A4D0E88C68842846FFF7C6
:10BF000033F905990120C8762071387901282879FC
:10BF100009D001220021FFF74BF900203871387257
:10BF2000F871B87118E10021FFF748F9F5E7C3E0AF
:10BF3000A07A012805D02846FFF746F9012807D046
:10BF400008E1F8790128BDD12846FFF70DF903E192
:10BF50000020F871039988710120A072FCE0A07A9A
:10BF6000012804D079792846FFF734F976E77D482F
:10BF7000C178002906D0039A00219171059A012108
:10BF8000D1762171807849E09BE0A07A012803D026
:10BF90002846FFF725F961E77248C0780028AAD043
:10BFA00001203873E88C6884CEE7A07A012805D098
:10BFB0000120F8752846FFF719F94FE7787D012829
:10BFC00006D0608A401E0004000C608214D0C1E0DC
:10BFD000B87D0128B8D1B88B00907B8B3A7E297947
:10BFE0000020FFF709F9AFE79CE07FE048E03AE086
:10BFF00028E016E009E0A8E0B88B00907B8B3A7E41
:10C0000029792220FFF7F8F856E0A07A012803D01A
:10C010002846FFF7F7F821E75248C078002893D167
:10C020000FE7A07A012806D02846FFF7F1F8A072A2
:10C03000002070748EE04B48C0780028F0D00120BA
:10C04000707481E7A07A012803D02846FFF7E6F84C
:10C0500004E74448C0780028E2D0002030742879F2
:10C06000FFF7E2F870E7A07A012803D02846FFF72F
:10C07000E1F836E03B48C0780028D1D0012018E034
:10C08000A07A012807D0707FB17F08401BD04107FC
:10C090001DD5042020E03348C0780028C0D0019985
:10C0A0000020C871019A012111722F4909790129D3
:10C0B00099D10199087247E722212846FFF7C0F875
:10C0C000012007B0F0BD707E7075B07E05E080077E
:10C0D00001D5022000E001207075B0752846FFF7F9
:10C0E000B5F8A07201990020087233E0A07A012807
:10C0F00007D02846FFF7B0F8A07202990120087611
:10C1000028E01848C07800289BD1608A401E0004AF
:10C11000000C60821ED11548042200212818FFF768
:10C12000A1F8C9E7A07A012803D02846FFF7A0F8B4
:10C1300094E60C48C07800280ED0029900200876BA
:10C140000299C875FFF79AF8FEE62846FFF79CF8B3
:10C15000012887D00020B4E7E07B002800D050E61B
:10C16000AFE70000E010FF1F6C68FF1F56020000E1
:10C17000124811490160124981601049114A403149
:10C180004A61124B104A5A61114AC262114A8263D3
:10C19000114A8A60114A42630C4A1148403A1062BF
:10C1A000104888611048094AC86110484032D0617F
:10C1B0000F48086270470000E9B700114000FF1FF8
:10C1C000F1B50011414EFF1F454DFF1F4002FF1FFB
:10C1D000A53BFF1FF139FF1F2DBD0011D1BD00117F
:10C1E000253EFF1FBD29FF1F853BFF1F2D48FF1F59
:10C1F000A93CFF1F0A7802708A7842704A88120AA6
:10C2000082700979C170042070470A780270098829
:10C21000090A41700220704710B500220EE0930019
:10C220005B189C7804705C88521C240A44701C794A
:10C2300084709B88D2B21B0AC370001D0B78934296
:10C24000EDD81806800D10BDF8B50D4606464978A4
:10C25000012031700024761C16E06978012917D07E
:10C260001221614349198A7832704A88871C120A60
:10C270007270B61C10223046091DFEF727FF1037DA
:10C28000B8B21036641CE4B22978A142E5D8F8BDF2
:10C29000A10049198A7832704A88871C120A727084
:10C2A000B61C02223046091DFEF710FFBF1CB8B2B3
:10C2B000B61CE7E710B50C46097801702188090A19
:10C2C00041706288211D801CFEF700FF6088801C81
:10C2D00080B210BD10B50C46097801702188090A9A
:10C2E0004170A17881706188090AC170A288A11D7E
:10C2F000001DFEF7EBFEA088001D80B210BD10B53A
:10C300000C460A88891CFEF7E1FE208810BD10B596
:10C310000B788A7802705343DCB22246401C091D18
:10C32000FEF7D4FE601C10BD10B50B788A78027041
:10C330005343DCB22246401C091DFEF7C7FE601CB9
:10C3400010BD10B50C460A88891CFEF7BFFE208878
:10C3500010BD10B50C460A88891CFEF7B7FE208870
:10C3600010BD7FB515460446022901D0102903D11E
:10C37000022B04D0102B02D0002004B070BD9942D3
:10C3800002D10A46294607E01029694607D000F085
:10C390000DF8102269462846FEF7C8FEEDE7104664
:10C3A00000F004F8102269462046F5E770B50C4607
:10C3B00005000CD0002C0AD0102206492046FEF7BA
:10C3C00085FE2878207368786073012070BD002096
:10C3D00070BD00008C0B011110B50B460122024903
:10C3E00001F018FD10BD0000F5C1001170B5064642
:10C3F00008880C46172812D30B46032209493046F9
:10C4000001F008FD050008D1074920880988884205
:10C4100000D20146304600F0D1F9284670BD022016
:10C4200070BD00000BC200110C69FF1F10B5002386
:10C430001922194601F0EEFC10BD000010B50A7873
:10C44000002A05D00B460722024901F0E3FC10BD8B
:10C45000022010BD19C2001110B54A78012A01D07E
:10C46000022A08D10A78002A05D00B460522034982
:10C4700001F0D0FC10BD022010BD000049C2001127
:10C48000024940008968085A704700000069FF1F90
:10C4900010B50B461B22024901F0BCFC10BD000088
:10C4A000B5C2001110B50649002089681723054A56
:10C4B00002E044000B53401C1478A042F9DB10BD8D
:10C4C0000069FF1FD869FF1F002801D0102801D97B
:10C4D0000220704701488160002070470069FF1FFB
:10C4E0000098022B01D00420704711785278120274
:10C4F00089180180002070470098012B01D004208A
:10C500007047117801700020704770B5049C1E467A
:10C510001546062B1BD3697828780902401820801D
:10C52000E978A87809024018608002222271291D4A
:10C53000601DFEF7CBFDB61FB2B22281F02A06D8ED
:10C540002046A91D0A30FEF7C1FD002070BD042061
:10C5500070BD0098042B01D00420704753781178E7
:10C560001B02C91801809178D27812028918418083
:10C5700000207047F8B584890D460646002C26D069
:10C58000B2681778380620D50C2C20D90C3CA4B200
:10C590001019009001217088234601F0D4FB002877
:10C5A00011D0022028707806C00F6870B806800E7F
:10C5B000A870641E2004000CA88001D0B068401C44
:10C5C000A8600020F8BD0120ECE70020EAE7012088
:10C5D000F8BD10B502981146042B14D34C780A7894
:10C5E000240212190280CC788A782402121942801F
:10C5F0001B1F9AB28280F22A05D8801D091DFEF702
:10C6000065FD002010BD042010BD0098042B01D052
:10C6100004207047537811781B02C9180180917863
:10C62000D2781202891841800020704710B5029814
:10C630001146062B03D0142B03D0042010BD022278
:10C6400000E0102202714B780A781B02D218028097
:10C65000CB788A781B02D21842800279401D091DCE
:10C66000FEF734FD002010BD30B5039CD80718D16B
:10C67000D805010E022914D30B488088814210D8B6
:10C68000F6200155002008E0557813782D025B193B
:10C690004500401C6353C0B2921C8842F4D3002072
:10C6A00030BD042030BD00000069FF1F0098022B40
:10C6B00001D0042070471178527812028918018045
:10C6C0000020704770B5144602460498022B18D318
:10C6D000667825783602AD1905800546E0352A765C
:10C6E0006976002A0BD0E8219B1E9AB242808A42CA
:10C6F00007D8A11C001DFEF7E9FC002070BDF42145
:10C70000F2E7042070BD000010B50B461722024965
:10C7100001F080FB10BD0000D5C2001110B50B4622
:10C720000D22024901F076FB10BD0000FFC200118E
:10C7300010B50A78002A05D00B461122024901F0F3
:10C7400069FB10BD022010BD0FC3001110B50A789F
:10C75000002A05D00B460922024901F05BFB10BDFF
:10C76000022010BD29C3001110B50B460F2202494B
:10C7700001F050FB10BD000043C3001110B50B4683
:10C780000B22024901F046FB10BD000053C300110B
:10C79000F72800D9F720084A01461080401EC31729
:10C7A0009B0F18188003000C5080491EC80F4018BA
:10C7B000C003000C908070470069FF1F034A138874
:10C7C000994202D892684000115270470069FF1FD9
:10C7D00010B500231322194601F01CFB10BD000008
:10C7E00070B50C460146032000020A1A00253448A1
:10C7F0001300FEF729FC1D1012151C1F2326282CE0
:10C80000303234383A3C3E40424446484A4E505218
:10C810005A5456585A00C07911E01022294902E0B2
:10C820002849102210312046FEF750FC45E0C06A2E
:10C83000206042E0224906223C31F4E70078207073
:10C840003BE0808936E01E4942784231EBE71D49E2
:10C8500082781F39E7E7007AF1E7407AEFE7184975
:10C8600006223031DFE7807AE9E7C07AE7E7C0895E
:10C8700020E0808A1EE0C0781CE0C08A1AE0008BAD
:10C8800018E0408B16E0808B14E00D49062236310B
:10C89000C9E7C08B0EE0008C0CE0408C0AE0807988
:10C8A000CDE7008A06E0408A04E0272904D2084642
:10C8B00000F050FA208000E00225284670BD0000FC
:10C8C0000867FF1FB993FF1F70B50E4C00256071FC
:10C8D000A571691EE18100F075FB0420E071102252
:10C8E00000210948FEF7BEFC074810220021103045
:10C8F000FEF7B8FCE562257265720720A072E5724A
:10C9000070BD00000867FF1FB993FF1FFEB53B4DC8
:10C910000C4608040CD56879FEF7BCFC050004D071
:10C9200001F064FF2846FEF7BBFC0120C00360E075
:10C93000600403D5012080034840FEBD2F48E10775
:10C940000126807900292AD02978002920D00528BD
:10C9500021D0297A68460170697A417027490622F8
:10C960003031801CFEF7B2FBA97A68460172E97A81
:10C9700041726946687900F005FA002808D007205E
:10C98000A871696A002903D00968002900D0884786
:10C9900020467040FEBD032069460870E4E7A10709
:10C9A0000DD5052809D1E889FEF780FCAA8A002A5E
:10C9B00003D002216879FEF765FB022019E06007C9
:10C9C00004D5002001F052FF042012E0200712D508
:10C9D0002879012802D002280AD107E00096AB8B03
:10C9E0006A8B298BE88A00F00BF801E000F05AF915
:10C9F00008206040FEBD0020FEBD00000867FF1F4C
:10CA0000F8B5134C069EA579052D01D01420F8BD6C
:10CA1000104F851FBD4219D2062917D3BD1DA9424B
:10CA200014D2FF27F537BA4210D20A2B0ED3AB42ED
:10CA30000CD2E08221836283A383304601F016FF8B
:10CA400004216079FEF712FB0020F8BD1820F8BD24
:10CA50000867FF1F7A0C0000F7B50D468049009863
:10CA6000164642187F4F00247879B9791300FEF7F3
:10CA7000EBFA190E141BE92040455970777E888F18
:10CA8000E996A2A9B4BFC8E9E9E9E9D3E900102D04
:10CA900076D11022314674486FE0102D70D1724863
:10CAA00010223146103068E0042D69D13068F862F8
:10CAB000CEE0012D64D13B7832783A70002B0AD059
:10CAC000002A07D1022903D0062901D0042901D167
:10CAD00000F016F9BCE0002A0AD0012905D003298C
:10CAE00003D0052901D0042902D10121FEF7C4FA9F
:10CAF000AEE0022D44D13088B881A9E01F2D3FD887
:10CB000058481F2200214230FEF7ACFB55482A4608
:10CB100031464230FEF7DAFA524B7D7042332A46F4
:10CB2000012112E01F2D7CD84F481F2200211F3801
:10CB3000FEF798FB4C482A4631461F38FEF7C6FAE6
:10CB4000494B2A461F3BBD700021787900F0B0FAAE
:10CB500083E0012D65D13078042862D8387277E0FF
:10CB6000012D5ED1307803285BD8787270E0062DF5
:10CB700057D13C48062231463030FEF7A7FA67E02D
:10CB80004FE0012D4DD1307807284AD8B8725FE0C8
:10CB9000012D46D13078032843D8F87258E0022D91
:10CBA0003FD13288BA82002A52D0052950D10221C1
:10CBB000FEF768FA4CE0012D33D13078012830D8E7
:10CBC000F87045E03088022D2BD1062829D3192191
:10CBD000C901884225D8F8823AE03088022D20D158
:10CBE00006281ED31921C90188421AD838832FE09C
:10CBF0003088022D15D1FF21F531884211D278837A
:10CC000026E03088022D0CD10A280AD31921C90147
:10CC1000884206D8B8831BE03178012D01D1012963
:10CC200001D0182414E00821FEF746FB002801D0AB
:10CC300016240DE0002001F019FE04217879FEF79A
:10CC400015FA05E00098272801D2022D02D002240F
:10CC50002046FEBD318800F0DBF90446F8E700000D
:10CC6000FFFCFFFF0867FF1FB993FF1F1CB50B4CAC
:10CC7000A179002901D011201CBD002800D06062DC
:10CC8000064907482C31034601910090103B0022D1
:10CC9000E179607900F016F800201CBD0867FF1FDD
:10CCA000C993FF1F10B506488179052901D01220CC
:10CCB00010BDC1891322407900F0BAF910BD0000FF
:10CCC0000867FF1FF8B51D460224069F079E0B004C
:10CCD000FEF7BAF90D1308131308131313131313E4
:10CCE0001308130000F0B2F8040006D132463946AA
:10CCF000284600F06DF900F0C5F82046F8BD0000A8
:10CD000070B5104C2168002904D00978814203D005
:10CD1000032070BD122070BD0B4D02212878FEF754
:10CD2000A5F90A480026468004212878FEF79EF9D6
:10CD3000074806802168032048700020FEF7C2FAE9
:10CD400070BD0000006AFF1F9969FF1F7C69FF1F0B
:10CD50001469FF1F272803D202494000085A704770
:10CD6000014870471C69FF1FFFFF000010B5044C0D
:10CD70006070FEF7ADFA0521607800F0E1FE10BDAD
:10CD80009869FF1F70B5284E054630680C4600288C
:10CD900001D0112070BD254801780520014216D030
:10CDA00023488068002805D00078002802D0C807F2
:10CDB00006D101E0102070BD00F044F8002808D032
:10CDC0002078032805D0022803D0002801D01220A3
:10CDD00070BD0C20FEF782FA3060002820D005706C
:10CDE000002141700A222146801CFEF76FF901F0F4
:10CDF000D1FD040002D001F0DBF812E00D4800780C
:10CE000003280ED11D20FFF7A5FF0B49002808803D
:10CE100007D00B48094A04210078FEF765FA00E0C4
:10CE20001324204670BD0000006AFF1F1169FF1F18
:10CE30007C69FF1F1269FF1F1469FF1F60EA000071
:10CE40009969FF1F10B503F0CFFC10BD70B50C46FB
:10CE500005461C2200210948FEF704FA084805701F
:10CE60004470FEF747FA0549002803D000200870F7
:10CE7000122070BD01220A7070BD00008499FF1F4E
:10CE80001069FF1F70B50F4C0025A068002802D064
:10CE9000FEF736FAA560E068002802D0FEF730FA07
:10CEA000E560094805210078084206D005481030A1
:10CEB00001F098FB01F01EF870BD002001F092FB1C
:10CEC000002070BD7C69FF1F1169FF1FFEB5394D41
:10CED0000C46080419D56878FEF7DCF90121C9036E
:10CEE0004C40064600280ED001F0B8FA002807D1C1
:10CEF0002878FF2804D03146FEF708FA002802D02F
:10CF00003046FEF7CDF92046FEBDE0070127002898
:10CF10000AD0A868002804D04168002901D0002068
:10CF2000884720467840FEBDA00709D568680028DC
:10CF300004D04168002901D001208847022035E053
:10CF4000600729D51C4E308800281FD0401E0004E1
:10CF5000000C30801ED101F0A1F8002809D017483C
:10CF600007706868002804D04168002901D00120BA
:10CF7000884701F06DF8694600F076FE684601F0DA
:10CF800057FA1D20FFF7E6FE308003E004216878A1
:10CF9000FEF76CF8042009E0200709D5FEF736F803
:10CFA000074900200870FEF73DF808206040FEBDEC
:10CFB0000020FEBD9869FF1F1469FF1F1369FF1F42
:10CFC0006C68FF1F01490870704700009869FF1FD7
:10CFD00070B50E4C0B46261D07C6054610220021D3
:10CFE0001846FEF799F9012803D11021A06803F033
:10CFF000B9FC102200212846FEF78EF9012803D142
:10D000001021606803F0AEFC70BD00008499FF1F22
:10D01000272807D2044A914204D0044A4000115202
:10D020000020704702207047FFFF00001C69FF1FAF
:10D03000F8B50D4617461D4906461B4A1224886856
:10D04000954208D100282DD00268002A2AD029460E
:10D050003046904723E0144A521C954213D10028D1
:10D0600007D00268002A04D02946304690470400C1
:10D0700005D03946304600F017FF040012D10B48A6
:10D08000067047700EE0284603F03EFB002809D0EA
:10D090000078B04205D139462846FEF743F90446E8
:10D0A00000E003242046F8BDFEFF00006C69FF1F6E
:10D0B000F8B50E46014619481546007805221F4668
:10D0C000104028D0304326D01548012E1BD0C4680C
:10D0D000002C20D01F2D18D8002D01D0002F14D0E7
:10D0E00001701F220021601CFEF7BCF82A46394659
:10D0F000601CFDF7EBFF28462570002E07D0611C51
:10D10000FEF716F9F8BD8468E2E70220F8BD611C5D
:10D11000FEF714F9F8BD1220F8BD00001169FF1FD9
:10D120007C69FF1F014610B50020C90704D0034ADF
:10D130000421034800F0A6F910BD00006C0B01119A
:10D140004066FF1F70B50F4D0F4CA870294618316F
:10D15000204600F01DF8002128460B461030CA007A
:10D1600084521218491C09065360090EF7D0012099
:10D1700002F024FBA87800F025FB044803F04AFBEA
:10D1800070BD00002066FF1FFFFF0000C5EF00110B
:10D1900070B50A4C0025A04209D1002082008C52B3
:10D1A0005218401CC0B295700228F7D370BD01F030
:10D1B000D8FE0028FAD00480857070BDFFFF000003
:10D1C000F8B50E460746069900240798002902D0B4
:10D1D0000B242046F8BD022B01D00D24F9E711786D
:10D1E0005278120289188DB22946814301D08024D9
:10D1F000EFE73846F16800F03DF9A842E9D02A4649
:10D200003846F16800F0A8F90400E2D171892A4695
:10D21000384600F065F9DCE770B50C46080412D515
:10D220000A488078FEF736F8050008D02878B0283C
:10D2300002D1284601F0B2FF2846FEF731F801205E
:10D24000C003604070BD002070BD00002066FF1F5D
:10D25000FFB587B0087A0025109E1C460F46C00611
:10D260000DD5099801F076FE030006D00A22394652
:10D2700007989847050035D101E00E2532E038784F
:10D2800002281DD178682922017840781202000214
:10D29000081880B2811A90427ED009DC7249401A87
:10D2A00023D0012821D0022851D0032808D125E01D
:10D2B000012972D0022971D003296DD004296ED0C2
:10D2C000099801F06FFE0028D7D00568002DD4D052
:10D2D00012991198019100903346224639460798D9
:10D2E000A847054628460BB0F0BD1198002873D119
:10D2F000F868017831800278416897E01198002839
:10D300006AD101203080F868002100782070788987
:10D31000401C80B200F04EF900280FD0318802780E
:10D320008918891C3180817A61704189090AA1704C
:10D3300002784168E01CFDF7C9FED3E7308804227B
:10D34000001D30800021601CFDF78CFFCAE711989A
:10D35000002872D1F86804A9008800900420308069
:10D36000009820700098000A6070009800F022F980
:10D37000070028D0F86805906846028A03AB3B494D
:10D38000384600F06FF900280FD13B780221384869
:10D390007A68FEF7E6FF03E027E031E01DE049E0B0
:10D3A000002802D131486946888105980078022812
:10D3B0000CD1059802224168201DFDF787FE3088B8
:10D3C000801C308002E06946009888816846808928
:10D3D000A070000AE07085E72FE0119800282CD19A
:10D3E000F968079800F046F804E01198002824D165
:10D3F000F8680088022131802070000A607071E7AF
:10D40000F868FDF7A1FF1199C0B2814210D881429E
:10D4100001D1002206E0129A8918814202D31199A3
:10D42000401AC2B23280F96811980918204682E782
:10D43000072557E71198002801D00B2552E707214F
:10D44000F868318001782170417861708178A1702D
:10D450004188090AE1700179217181796171C0887F
:10D46000000AA0713EE7000000280000FFFF000056
:10D47000020C011110B501F074FD002800D0807875
:10D4800010BD00007CB51446050019D06846019512
:10D49000018000F09DF903001DD1002C1BD06D8987
:10D4A000002D0DD00C20FDF719FF00280AD0002315
:10D4B00003608580094A84609168002904D006E0F1
:10D4C000022308E0132306E0906004E011460A6896
:10D4D000002AFBD1086018467CBD00002066FF1FB3
:10D4E000F8B50C4C0746207815460E46FF280FD09D
:10D4F0000A20FDF72FFF01000AD0B120087000209C
:10D50000487008714F80CE800D812078FDF7FEFEB7
:10D51000F8BD00002066FF1FFFB583B008461F4618
:10D5200001A90C9E00F046F8050012D068468088DC
:10D5300001F038FD00280AD04468002C07D000967E
:10D540003B462946059A0398A04707B0F0BD0E2038
:10D55000FBE70120F9E7000070B514460E460546CA
:10D5600001F0FFFC002806D13146054801F0F9FC26
:10D57000002803D005808470002070BD112070BD8C
:10D58000FFFF000010B50178B0290BD141780029C8
:10D5900008D10179122906D01B2903D14088012125
:10D5A00000F04AFA10BDFF210231095C0129F5D0D3
:10D5B00010BD0000F0B58C4610494B6819E09F681B
:10D5C0007C89A04214D39E883119814210D900224F
:10D5D0000CE011017D186989814205D1604600285F
:10D5E00000D004802846F0BD521C92B29642F0D87A
:10D5F0001B68002BE3D10020F0BD0000B069FF1FC5
:10D60000FFB5174881B00A9F446824E000251EE05A
:10D61000A0682901461870890199884215D302999A
:10D62000884212D80498002807D031787068049B8B
:10D63000039AFEF796FE002807D0002F02D0A068BC
:10D6400040893880304605B0F0BD6D1CADB2A08871
:10D65000A842DDD82468002CD8D10020F3E70000D0
:10D66000B069FF1FFEB5174600256A46958004463F
:10D6700040891D4A1E46904208D001AA0092401CD3
:10D68000237880B26268FFF7BBFF0546237802214A
:10D6900016486268FEF765FE002807D1237802214C
:10D6A00013486268FEF75DFE002801D060890EE035
:10D6B000237802210F486268FEF753FE00280DD040
:10D6C000002D03D068468088B84203D0384602F067
:10D6D0007FF904E06889401E80B200E06089002E76
:10D6E00000D030802846FEBDFFFF0000000C011175
:10D6F000020C0111060C011110B505490870042136
:10D7000000F01EFA00F006F8FEF7CCFE10BD000097
:10D71000BC69FF1FF8B50F4D0D4B00206E1C1C7827
:10D72000FF2209E09F688100C91900280ED00E80F1
:10D73000CA70401C8A70C0B2A042F3D3064801F000
:10D74000FBFB064803F066F80020F8BD0D80EFE70C
:10D75000B069FF1FFEFF0000E9F8001169F8001131
:10D76000F8B50D4614460646694601F041FA1728F9
:10D770000CD0002C06D001221021304602F09EFF72
:10D78000002803D129463046FEF782FEF8BD00008E
:10D7900070B50C46080411D509480078FDF77AFDEC
:10D7A000050007D00178A02901D101F069FB2846C6
:10D7B000FDF776FD0120C003604070BD002070BD04
:10D7C000BC69FF1F0149487070470000B069FF1F26
:10D7D00070B50546008800281DD0686802210378CE
:10D7E00042682248FEF7BDFD002808D16868022182
:10D7F000037842681E48FEF7B4FD00280BD01D4C8C
:10D800006088002805D0012229881204101A81425C
:10D8100003D9012070BD022070BD0C20FDF75EFD14
:10D82000060001D000200BE0132070BD01016B68E1
:10D8300062880A315A526188491C401C618080B25A
:10D8400029888142F2D80020306008222946301D04
:10D85000FDF73CFC6068002802D1666004E00846E1
:10D8600001680029FBD10660002070BD000C011189
:10D87000020C0111B069FF1F0649496806E08A6879
:10D880005289824201D18888704709680029F6D1FF
:10D8900000207047B069FF1F10B50C460321FDF74B
:10D8A0005FFD214600F0B4F910BD10B514221142FD
:10D8B00001D0012202E04A0604D50022102102F024
:10D8C000FDFE10BDC80701D0002010BD022010BD14
:10D8D00010B514468A0604D50122102102F0EEFE8E
:10D8E00010BD882211420ED008220A40102102F0F9
:10D8F000E5FE00280BD0E034617E0029F0D0217EC7
:10D900000129EDD103E0880701D4032010BD0020D8
:10D9100010BD0000014610B50020C90704D0034A1D
:10D9200007210348FFF7AEFD10BD0000800B011179
:10D930009466FF1F70B50D46164600241D4903006E
:10D94000FDF782FB08051234341934222934152DD1
:10D9500023D8162200211848FDF784FC2A463146B8
:10D960001548FDF7B3FB22E0022D16D111491088AE
:10D97000103908801BE0082D0FD10E4808223146CF
:10D980000838FDF7F3FC12E0012D06D1CA690949F8
:10D990003078283107E0012D01D0182407E0CA6B48
:10D9A00004493078483102F0DAF800E002242046D9
:10D9B00070BD00009466FF1F8493FF1F0B780370F7
:10D9C0000B8802221B0A43700B88801C012B02D09B
:10D9D000022B07D011E08A7802704988090A417049
:10D9E00004220AE08A7802704A88120A42700A7990
:10D9F00082708988090AC1700622104670470000AB
:10DA000008B5044B009313460A46012102F086FD37
:10DA100008BD0000BDD900111CB50323019200937D
:10DA20000A46024B122102F0A9FD1CBDE1FD0011C6
:10DA300010B5FDF7A1FC10BD13B50448007801280E
:10DA400003D101AA6946FDF79DFC1CBDC869FF1FF3
:10DA500070B51049104A087000210B468C00491C13
:10DA6000C9B213530429F9D30B4C00211034FF26FB
:10DA70000A460A256A4315196B80491CA354C9B28A
:10DA80006E720329F4D3FDF783FC02F0F7FC02F079
:10DA900071FE70BDC969FF1FA099FF1F082A01D040
:10DAA000012070474B780A781B02D2180280CB788D
:10DAB0008A781B02D21842804B790A791B02D2184D
:10DAC00082808A79C97909025118C1800020704783
:10DAD00070B50C46080411D509480078FDF7DAFB4B
:10DAE000050007D00178902901D102F029FC2846D1
:10DAF000FDF7D6FB0120C003604070BD002070BD63
:10DB0000C969FF1F70B50C490978884213D20B4CC4
:10DB100006016068002585533018858160683018DB
:10DB20008580606830188068002804D0FDF736FCD6
:10DB300060683018856070BDD869FF1FCC69FF1F11
:10DB4000072907D0052905D0042903D0062901D0CB
:10DB500002207047044A8B009A181346403B1986EE
:10DB6000203A907400207047A099FF1FF8B519491A
:10DB7000097888422DD25C21174C4843A16805469C
:10DB80004018002640300674A068281840304674BB
:10DB9000A068281840300676A0682818406D002834
:10DBA00004D0FDF7FBFBA068281846650027A06895
:10DBB000FE00281880194068002806D0FDF7EEFB0B
:10DBC000A16800206918891948607F1CFFB20A2FDC
:10DBD000EDD3F8BDD869FF1FCC69FF1F70B50A8867
:10DBE0000C460546072A07D0052A05D0042A03D08B
:10DBF000062A01D0022070BD012102F03DFE00285E
:10DC000004D02146284602F001F970BD142070BDF1
:10DC10001CB504460D480129017003D00020FDF712
:10DC2000C3FB1CBD69460020FDF7C6FC6846818821
:10DC30002046FDF795FB04460120FDF7B5FB0023C8
:10DC4000224619461846FDF7B5FB1CBDC869FF1FE3
:10DC500010B5001D80B2FDF7B3FB002803D00321EF
:10DC6000C943FDF7B3FB10BD38B50C46050014D011
:10DC7000002C12D00321684602F074FE69468878B1
:10DC800040218006800E0843694688702246284657
:10DC900002F03AFF050002D006E0022038BD032260
:10DCA0006946E01CFDF712FA284638BDF7B58EB07C
:10DCB0000E9815460E4600282DD0002D2BD0301D75
:10DCC000C0B20190FDF70AFB040039D000F0CCF996
:10DCD00007463246201D0E99FDF77EFBF8B20890EC
:10DCE000E0703804000E0B90A0703802000E0A900D
:10DCF00060703F0E277000F0B1F90146102202A8B3
:10DD0000FDF76AFB06AB214602A8019A02F052FE1B
:10DD1000060003D010E0022011B0F0BD0898287072
:10DD20000B9868700A98A870EF70082206A9281D41
:10DD3000FDF752FB00F09EF92046FDF7E1FA00E006
:10DD400013263046E8E7FFB58DB00F98169C0E46B7
:10DD5000002815D0002C13D00D9802F0D5FC05003A
:10DD600011D06178207809024018A178E27809047E
:10DD7000120689184718286AB84206D3401C04D0F6
:10DD8000022011B0F0BD1420FBE7002E04D028794A
:10DD9000800701D40120F4E70822002106A8FDF73E
:10DDA00061FA1098001DC0B20190FDF797FA0600C5
:10DDB00017D0301D109A0F99FDF70EFB0422214653
:10DDC0003046FDF709FB1022A91802A8FDF704FB55
:10DDD00006AB314602A8019A02F0ECFD050002D024
:10DDE00013E01320CDE7082206A908A8FDF7F4FAEE
:10DDF0000822211D08A8FDF799F9012801D0012565
:10DE000003E039460D9800F01BFE3046FDF778FA26
:10DE10002846B6E7FFB583B016460F461B2A01D049
:10DE2000522E04D10398FDF7DDFA00281BD01D49BE
:10DE3000039889684000085AFFF70AFF04002DD0B4
:10DE40000125601C2670002F03D00699B847401C9E
:10DE500085B2300613D51021039802F00DFD00287D
:10DE600004D0192616E0132007B0F0BD6219E9B2FC
:10DE70002046FFF71BFF06000CD10C35ADB2042184
:10DE8000684601800194058169460398FFF7A6FE64
:10DE9000060004D02046FDF781FA00E01326304644
:10DEA000E2E700000069FF1F10B50C4602F044FCD9
:10DEB000002804D040882146FDF734FA10BD122016
:10DEC00010BD0022002913D0002811D0012806D04F
:10DED0004A799206920E4A71032805D007E04879E4
:10DEE000C0221043487102E0402002434A710122DF
:10DEF0001046704770B51248002500780521084289
:10DF00001BD02020FDF7EAF90E4C0028A06013D0AA
:10DF100020220021FDF7A6F92020FDF7DFF9E060BF
:10DF2000002804D020220021FDF79CF905E0A0681C
:10DF3000FDF7E6F90020A0601325284670BD00001B
:10DF40001169FF1F7C69FF1F002909D0012807D133
:10DF5000497989098901C02902D0402901D00220CC
:10DF6000704703207047FFB500200E4608701AE086
:10DF70001C5C401CC5B2002C17D02819904214D844
:10DF80005F5D6D1CEDB2384600F083FD002806D0C1
:10DF9000641EE0B2307000998F4202D1581904B06B
:10DFA000F0BD4019C0B29042E2D30020F7E7000074
:10DFB00010B5044C2068002803D0FDF7A1F900201B
:10DFC000206010BD006AFF1F70B5104D8400E86826
:10DFD0000059002819D0006A002801D0FDF790F9F7
:10DFE000E8680059406A002801D0FDF789F9E8681F
:10DFF0000059806A002801D0FDF782F9E8680059CD
:10E00000FDF77EF9E9680020085170BD6C69FF1FBB
:10E0100010B5044C6068002803D0FDF771F90020AA
:10E02000606010BD6C69FF1F011E044805D10449E2
:10E030008978002901D00248801D70479499FF1FFC
:10E040001069FF1F01488078704700001069FF1FAA
:10E0500001484068704700008499FF1F01488068AC
:10E06000704700008499FF1F0148C068006870472E
:10E070008499FF1F10B50748C0680168491C0160FA
:10E0800005480078FF2803D001218903FCF7F4FF3D
:10E0900010BD00008499FF1F1069FF1F02484068EF
:10E0A000002800D001207047FC69FF1F10B581884F
:10E0B0001F4B0124CA1A994237D011DC1D4BCA1AD2
:10E0C000994219D007DC1C4A8A1810D0022A1ED0A7
:10E0D000032A29D11BE0472A27D0482A24D124E04B
:10E0E0001300FCF7B1FF06212222222222218068A0
:10E0F000007800F08FFC08E0806882784178120296
:10E10000891889B2007800F0E5FC04460DE0094A60
:10E11000921E914201D1012200E000228068017824
:10E12000104600F0BFFC00E00024204610BD0000B7
:10E13000532000000A200000FADFFFFF70B51A4DDF
:10E140001A4A0146002628781268194C01290CD079
:10E15000002A09D017490978490705D50221FCF79B
:10E1600085FF6680FFF724FF70BD6188002903D01A
:10E17000114B1B78002B05D0002AF5D01078FEF744
:10E18000BFFD70BD3C2902D33C39618070BD0221C6
:10E19000FCF76CFF62887D20C00042430221287892
:10E1A000FCF770FF668070BD9969FF1F006AFF1F52
:10E1B0007C69FF1F1169FF1F1369FF1F10B582786B
:10E1C000012412490D2A13D006DC012A18D0022A94
:10E1D00009D0032A04D116E0152A02D0162A00D04D
:10E1E0000024204610BD89680029FAD0496803E060
:10E1F000C9680029F5D009680029F2D08847F0E7FE
:10E2000000F010F8EDE700F003F8EAE79869FF1F67
:10E2100008B5418900910389C2888188C07800F0DF
:10E2200077FB08BDF0B504468088A12189004843EA
:10E23000304987B009684018FF30FF300230A179BB
:10E240004167002C54D02C4D6868002823D00678F4
:10E250002A480068002804D04168002901D0002025
:10E2600088472146E07908310591FFF76DFEE0719E
:10E270000246277D638A218AE089019002A88AC02C
:10E28000A0880090E0783146059B02F01DFBE07805
:10E29000002802D00DE01A48D9E7E079E2896B4600
:10E2A000059907C3A379A1880122304602F0CCF971
:10E2B000E0706868002811D0FFF7AAFE28780028CF
:10E2C0000CD06978FFF7F0FD002807D0E078A2882D
:10E2D0000346297802F025FB00202870A08817212A
:10E2E000FEF76CFAA088FFF70DFCA088FFF73EFC54
:10E2F00007B0F0BD3409FF1F6C69FF1F9C69FF1F49
:10E300001069FF1F70B504460025808802F0FCF9F3
:10E31000002803D00578A08802F092FA134E3078D6
:10E32000002808D0854206D17178FFF7BDFD00288E
:10E3300009D000203070002D05D0A379A288A078E4
:10E34000294602F0EEFAA088F268810051580029AF
:10E3500001D0FFF739FEA0881721FEF72FFAA08819
:10E36000FFF7D0FBA088FFF701FC70BD6C69FF1FB1
:10E3700070B58288294D0124531B2949AA4242D0F5
:10E3800019DC284D531BAA4218D00BDC264BD2189F
:10E3900026D0254B1033D2181ED0032A17D0042ABA
:10E3A00039D10BE0012B09D0022B07D0032B21D050
:10E3B000042B30D11AE0433B072B2CD849680029A5
:10E3C0002AD00968002927D08847044624E08068BD
:10E3D000007800F091F81FE0806800F0E5F8F4E7BD
:10E3E0008068411C007800F0BDF8EEE783681B7878
:10E3F000002B11D0896800290ED00B6808E0014677
:10E4000010469847E1E709490968002904D04B689C
:10E41000002BF4D100E00024204670BD0E20000047
:10E420009869FF1F08200000F7EFFFFF7469FF1FC6
:10E4300010B5094CA17800290CD001460622A01D78
:10E44000FCF744FEA11DA078FFF73BFDA01DFDF7E2
:10E4500005F810BD002010BD1069FF1F1CB5224932
:10E46000037801240A68912B02D0A22B18D124E052
:10E470004178052909D00E2904D00F2908D03E295A
:10E480000ED116E0FFF774FF15E0FFF73BFF20E029
:10E4900001468088154B0124C31803D0062B01D0F8
:10E4A000002416E0002A14D05268002A11D09047A8
:10E4B00001E0FFF783FE04460BE00D4909780429CB
:10E4C00009D0002A05D05268002A02D00146094826
:10E4D000904720461CBD00216A4611800179408882
:10E4E000FFF78EFAF5E700007469FF1FF3DFFFFF07
:10E4F0001169FF1FFFFF0000F8B5164F0646BD1F4C
:10E500002878FF2814D00A20FCF724FF04000FD03D
:10E51000D020207066700820A070A878E0700622D5
:10E520003946201DFCF7D2FD21462878FCF7EEFE87
:10E53000E87801280DD108480068002803D08068D9
:10E54000002800D080470648044A04210078FCF7E0
:10E55000CBFEF8BD1669FF1F9C69FF1F60EA000033
:10E560009969FF1F70B500240546002805D10029D0
:10E5700003D006220B48FCF7A9FD0A4810380178A1
:10E58000012907D10124002D06D000210170284661
:10E5900000F09AF9204670BD02210170FCF728FFB7
:10E5A000F8E700009499FF1F10B50024002813D04D
:10E5B00002780B49002A03D14288CA8202790A767E
:10E5C0000A78022A08D102780124002A06D0002203
:10E5D0000A70007800F078F9204610BD0322F7E7B2
:10E5E0008499FF1F01494860704700009869FF1F28
:10E5F000F8B57C4C87780146002507266079A2791A
:10E600003B00FCF721FD0805381C3939619CD238E4
:10E61000487800285ED1734806223C30C91CFCF7BC
:10E6200055FD0120A0716278002A07D06D4B0121B1
:10E6300042336079FEF73CFD00284BD1ABE00F463A
:10E640004978002946D1F978002906D0664BA2788E
:10E650000021FEF72DFD78700AE0022A0BD001217F
:10E66000FCF72AFE002803D101216079FCF704FDA4
:10E67000787800282ED1F8BD497800292AD1032FB7
:10E6800009D0A289002A0CD0217800290AD00121C2
:10E69000FCF7F8FC06E0052A01D0022012E0062073
:10E6A00010E02570A079062802D0042802D008E0E6
:10E6B000052007E00120207001466079FCF7DCFCB2
:10E6C00069E00320A07166E048780F46002803D077
:10E6D000312832D0A6715EE042480622391D36301C
:10E6E000FCF7F4FC7889E081B8892082F88960829F
:10E6F0000520A071A28A002A03D002216079FCF7CC
:10E70000C1FCB889E083F8892084388A6084E07885
:10E7100001280AD11F20FEF71DFB7D21C9004843B7
:10E72000024604216079FCF7ADFC7A89F87804236D
:10E73000391DFCF763FE25702DE02570C1E72948DF
:10E740000E46062200213630FCF78CFDE583258439
:10E75000658404216079FCF789FC08216079FCF765
:10E7600085FCB07908280BD00320A07160780028C0
:10E770000ED02078002805D06079FEF7C1FA07E0B6
:10E780000420F2E70120207001466079FCF774FC58
:10E790000020C043E081606A002800D16BE7016877
:10E7A0000029FBD0A0798847F8BD0D460821FCF769
:10E7B0005DFC687829460028F6D1E888E08328893E
:10E7C00020844889608404216079FCF775FD002865
:10E7D000EAD1A06A0028E7D00368628C218CE08B24
:10E7E0009847F8BD0867FF1F9A93FF1F10B501787F
:10E7F0001C4C912906D0A2291BD0D02901D1FFF7AA
:10E80000F7FE10BD41780E29FBD18188164A91424E
:10E81000F7D1816803200856A1790529F1D17F2815
:10E82000EFD0616A0029ECD049680029E9D0884717
:10E8300010BD41791329FBD10089012802D120792B
:10E84000022808D00520FEF785FA024608216079E3
:10E85000FCF718FC10BD08216079FCF707FCFEF7F7
:10E8600021FA10BD0867FF1F051400007CB5154C88
:10E870000546E08BE18A88420AD3218B884207D87B
:10E88000208C618B884203D1608CA18B884217D089
:10E890000520FEF75FFA0646E18A68460180218B73
:10E8A0004180618B8180A18BC18062796946E0895A
:10E8B000FFF7B2F82571324608216079FCF7E2FBD8
:10E8C0007CBD00000867FF1F70B50F4D0646287815
:10E8D000FF2818D00E20FCF73DFD040013D0D020F7
:10E8E000207066700020A07006220849E01CFCF72A
:10E8F000EDFB06481038C18A6181007E20732146F5
:10E900002878FCF703FD70BD1069FF1F9499FF1F65
:10E91000FFB581B01E4617460D460C20FCF71AFDC8
:10E92000040013D0284601F0EFFE002810D0007834
:10E93000D0212170019961700721A170A580E78025
:10E9400026810A9961812146FCF7E0FC05B0F0BD03
:10E950000048ECE71069FF1F70B50D4D04462868AC
:10E960000E46002812D00620FCF7F4FC010009D066
:10E97000D02008704C70032088708E802868007842
:10E98000FCF7C4FC002C01D0FFF712FB70BD0000A7
:10E99000006AFF1FF0B51D4E85B03068002832D0E8
:10E9A0008778FEF74FFA002805D00A20FEF7D2F943
:10E9B00004900B200EE001F0E1F9002805D00620BC
:10E9C000FEF7C8F90490072004E00820FEF7C2F91A
:10E9D00004900920FEF7BEF904460D483168057819
:10E9E000C878091DFFF76DFA31686E46CA7A8B7ACE
:10E9F000091D0BC603922B463A4621460498FCF7A4
:10EA000003FD05B0F0BD0120FBE70000006AFF1F19
:10EA10001269FF1F10B50949096800290CD00028A8
:10EA200005D101204870FCF74DFC002802D00021E0
:10EA3000FFF792FF012010BD002010BD006AFF1FEC
:10EA4000F8B50C4601F060FE020021D026201462C9
:10EA5000FEF780F905062D0E00D115789679D01DA8
:10EA600000901020176AFCF775FC040010D0D0202D
:10EA70002070002060700920A070E6700622201D22
:10EA80000099FCF723FB21462846E760FCF73EFC93
:10EA9000F8BD411E152903D9FF2801D00020704779
:10EAA0000120704770B50A4E054630780C46FF28A5
:10EAB0000DD00420FCF74EFC010008D0D0200870D7
:10EAC0004C7002208870CD703078FCF71FFC70BD50
:10EAD0007C69FF1FF3B5284D81B0286800284AD013
:10EAE0004078264E012803D03078002831D041E00C
:10EAF00001F044F9224F002813D00120FEF72AF933
:10EB00000446412808D91F4A02213878FCF7ECFB5B
:10EB10001D483C3C44800EE07D20C000224642431C
:10EB200003E00020FEF716F90246002A03D0022176
:10EB30003878FCF7A7FA2968022048703078002856
:10EB400002D00020307015E002990198FFF704FF11
:10EB500010E00320019CFCF7FDFB010008D0D02051
:10EB600008704C700420887028680078FCF7CEFB91
:10EB7000FFF71EFA0120FEBD006AFF1F1369FF1F89
:10EB80009969FF1F60EA00007C69FF1F002903D01C
:10EB9000054AD160002103E002207047491CC9B238
:10EBA0008142FBD3002070476C69FF1F002904D00D
:10EBB000034A107000205160704702207047000027
:10EBC000A869FF1F30B5094A0021137809E095684C
:10EBD0008C002C5B844202D18800401930BD491C56
:10EBE000C9B29942F3D3002030BD0000B069FF1FC5
:10EBF00010B50C46FFF7E6FF00280DD0002C00D022
:10EC000020608078FE2803D0FF2803D0162010BD96
:10EC1000172010BD002010BD022010BDFFB581B02F
:10EC2000FF201E46174605300A9DFCF793FB0400A3
:10EC30001BD0B02020706770029860802671002D74
:10EC400006D02046FC2229460830FCF73FFA05E0B2
:10EC50002046FC2200210830FCF704FB21460198E5
:10EC6000FCF754FB002005B0F0BD1320FBE70000CB
:10EC70000548172202800988172901D2042070470D
:10EC800001800020704700000C69FF1F00207047C2
:10EC900008B50A460888498888420BD8002809D058
:10ECA000002300931379521DFEF7AAFC002803D01D
:10ECB000002008BD012008BD0A2008BDF3B50D469F
:10ECC00008884988002687B0814215D3002813D0D0
:10ECD000002769460F710097002369881A46FEF7DE
:10ECE0008FFC04004FD068460079002807D06946A1
:10ECF0004979012925D008E0012009B0F0BD21782B
:10ED000002291BD002216A4651711222504301AAE6
:10ED10006189801841806846007912235843801821
:10ED20001022001D6168FCF7D1F968460079401C8B
:10ED30000106090E684601711FD11AE001216A46D9
:10ED40005171217802291ED1820001A8618912180F
:10ED500051806A4612796168920010180222001DE3
:10ED6000FCF7B4F96A461079401CC0B2107105284E
:10ED700003D261890A48814200D101266089401C82
:10ED800080B2002EA7D068460079002805D001A9DE
:10ED90000798FDF761FB0020AFE70A20ADE7000010
:10EDA000FFFF000038B50C4608884988884215D80E
:10EDB000002813D02379621D02210B48FDF7D1FAF8
:10EDC00000280DD000200090237961882088621DE2
:10EDD000FEF716FC002805D0002038BD012038BD04
:10EDE000102038BD0A2038BD000C011108B50A46B4
:10EDF0000888498888420BD8002809D0002300934E
:10EE00001379521DFEF7FCFB002803D0002008BD3B
:10EE1000012008BD0A2008BDF8B500250F460646AA
:10EE20000C46E03717E06800205A0021FEF7C2FBCD
:10EE3000002809D0017A3046FEF737FD002808D0B7
:10EE40006900615A2180F8BD6800205A20800120A5
:10EE5000F8BD6D1CEDB2B87DA842E4D80020F8BD25
:10EE600010B5044608880021FEF7A4FB002804D052
:10EE7000017A2046FEF719FD10BD012010BD0000EB
:10EE800030B585B005466946FDF774FB040026D110
:10EE900068468078C1071E4809D08268002A04D0DD
:10EEA000688869469047044619E0062417E04268DE
:10EEB000002A05D0688869469047040001D10EE019
:10EEC000062468464078002809D168468178017395
:10EED0000021C1810474688803A9FDF77DFAA86840
:10EEE000002801D0FCF75AFA002C05D1684680783A
:10EEF000122807D01B2803D068880121FEF79CFD4B
:10EF000005B030BD684640780128F5D1F8E700002B
:10EF1000BC69FF1F70B505460C4608880021FEF746
:10EF200049FB002805D0017A22462846FEF7D0FC8E
:10EF300070BD012070BD00000149486070470000AD
:10EF4000BC69FF1F10B50446801C00F04DFDFF207A
:10EF5000E07010BD10B500F025F8002800D08068E2
:10EF600010BD00229300CB5A834202D1900040187A
:10EF70007047521CD2B2022AF4D30020704700001E
:10EF8000074A0021CB00D35A834202D1C80080181F
:10EF90007047491C0906090EF4D000207047000094
:10EFA0003066FF1F0649896805E08A88824201D1E0
:10EFB0008868704709680029F7D100207047000071
:10EFC0002066FF1FF8B50746012906D0022924D183
:10EFD000012101F051FC00281FD13846FFF7D0FF76
:10EFE000050015D000240D4E0CE0F8206968604340
:10EFF00008180188002908D0F8220021FCF732F90E
:10F00000641CE4B270788442EFD30020C0432880AF
:10F01000024938461831FEF7BBF8F8BD2066FF1FDD
:10F02000F3B5064683B00830019000200090708848
:10F03000FFF7A6FF07002FD0002523E0F82079680E
:10F0400068430C182188002920D0019800780128F5
:10F050000FD160880090A3887088A21DFEF75CFA2B
:10F060000090002805D0019900200870049821889C
:10F070000180F82200212046FCF7F4F800206D1CE6
:10F080002080EDB2074840788542D7D30020C043A6
:10F0900038800098002802D17088FDF7C7F90098E1
:10F0A00005B0F0BD2066FF1FF3B50546374C064698
:10F0B00085B00835F62200212046FCF7D3F803A8D6
:10F0C00000902B79698828886A1DFEF799FA07460F
:10F0D00046E02F4A708812684100515C0022C91F27
:10F0E000CBB22C49029300910192284B69468A8940
:10F0F000F63B3946FEF7ACF8002812D1254829899D
:10F10000001F828891420CD120492846F6390A30E6
:10F11000FCF70CF8002804D02178788989000919B7
:10F12000488068468289698804AB3846FEF79AFAB7
:10F1300007462078810009194A88002A10D0002F3C
:10F1400005D06A46128A401C20708A800AE00106B7
:10F150000022890DD2430919401C20708A8006E0E4
:10F16000002F04D00C48217800888142B1D3207848
:10F17000002806D070882146FDF760F9002007B00E
:10F18000F0BD0698298801800A20F8E78A92FF1FBF
:10F190000869FF1F2466FF1F0269FF1FF0B585B0D5
:10F1A000044600206946888120790E286BD00FDC48
:10F1B000082823D004DC022813D0062818D118E030
:10F1C00025460835494F0A281DD00C2810D139E0B2
:10F1D00010285DD0122860D0162863D0182879D165
:10F1E00065E044484249008808806088FDF7FEF8E1
:10F1F00070E003A92046FFF757FF5CE003A9204613
:10F2000000F080F957E0288804A9FEF7D3F901003F
:10F2100016D060883B6842009A5C354E521ED2B2CE
:10F2200000230193029200966A46B31C128AFEF7ED
:10F230000FF800281ED160883146FDF79FFA49E09B
:10F24000012017E0288804A9FEF7B4F90100F7D0DF
:10F2500060883B6842009A5C6B88521E244ED2B292
:10F260000193029200966A46B31C128AFDF7F0FFE2
:10F27000002803D029886A4691811CE060883146C5
:10F28000FDF74CFA26E003A9204600F0DDF912E074
:10F2900003A9204600F082F80DE003A9204600F003
:10F2A00049FA08E003A9204600F028F803E003A982
:10F2B0002046FFF7B5FE00280CD06178142909D04C
:10F2C0000B4922790A706A4692894A8008716088DF
:10F2D000FDF782F82046FEF755F90748C168002976
:10F2E00001D02046884705B0F0BD00000869FF1F27
:10F2F0008A92FF1F0069FF1F2066FF1FF8B50446B2
:10F300000F460546083400896946FEF753F90600A2
:10F310003AD0307A80060ED568460088FFF71AFE8C
:10F32000030006D06888122231469847060002D0B2
:10F330002BE00E2629E06E883046FFF721FE010003
:10F3400005D11448FFF71CFE01000ED00E80124AB2
:10F350000020527807E0F8264B6846439B5B002B61
:10F3600005D0401CC0B29042F5D309260DE0496893
:10F37000F822504308182146FBF7A8FE00266888AB
:10F380002146FDF7C1F902E0012620883880304689
:10F39000F8BD0000FFFF00002066FF1FF3B58BB033
:10F3A00000200B9E0746039004A800903246337B52
:10F3B00071893089504C0D320836FEF721F9054627
:10F3C0007EE00B98297A4088FEF76FFA070003D099
:10F3D0000C986989018076E00B9848494088096853
:10F3E0004200895C464B891FC9B2009300220291FA
:10F3F0000192414B69460A8AF63B2946FDF728FFF0
:10F40000070003D00C99688908805CE00398002805
:10F4100034D03B486188001F8088021D914255D13D
:10F42000039909180B984088420034480068805AB4
:10F43000801F81424ADC0399A87A611808710398F9
:10F440006989401C80B22218090A401C117180B2DF
:10F4500003906846028A718807AB2846FEF702F9D6
:10F46000050011D003986946898B20180171039813
:10F470006946401C898B80B2090A0CE02048001FB5
:10F480008088001D6080D6E70398FF212018017155
:10F490000398401C80B222181171401C80B2184998
:10F4A0000390091F8A8814492018F639001DFBF7BC
:10F4B0000DFE13490398091F8988401880B20390F4
:10F4C000002D00D07DE7039800280CD061880398B8
:10F4D000FBF746FF20700B9821464088FDF728F97E
:10F4E00000200DB0F0BD002F00D10A270C99308804
:10F4F00008803846F5E700008A92FF1F0869FF1F61
:10F500002466FF1FF3B50746044608378BB04A4808
:10F510000490388800252E4605906CE007A80090DE
:10F520003B7979887A1D0598FEF76AF808900028DB
:10F5300054D0408905900898017A6088FEF7B5F9A3
:10F54000060060D13D49608809684200895C3C4BF7
:10F55000091FC9B20093002202910192364B6946FD
:10F560008A8BF63B0899FDF773FE06004BD1002D00
:10F5700037D0049841883248001F8088801C81421F
:10F5800043D12F4B2D491B1F988809682A18608882
:10F590004000085A001F824220DC08980499807AB3
:10F5A0004919087108996D1C4989E8B20A0A049939
:10F5B00009180A71401CC5B2194604988A881E4968
:10F5C0004019F639001DFBF781FD1D481D49001F3C
:10F5D00000792818C5B20598884209D1002D14D1A8
:10F5E00023E017480499001F8088801C4880C8E7E2
:10F5F000401C80B205906088410010480068405A65
:10F60000001FA8428ADA002D0DD0049841882846B0
:10F61000FBF7A6FE0499087060880499FDF796F838
:10F6200000200DB0F0BD002E00D10A260C980599DF
:10F6300001803046F5E700008A92FF1F0869FF1F2E
:10F640002466FF1FFFFF0000F3B5064604460020B6
:10F6500085B0354D00900836288007463046E030AA
:10F6600004904EE07800305A03A9FDF7A3FF010093
:10F670001BD060882E4B844642002C480068805C7A
:10F680000093401EC0B2002202900192264B6846B1
:10F690008289F63B6046FDF7DBFD009000280BD029
:10F6A0007800315A069801803BE0012000907800F4
:10F6B0000699305A088034E01D482988001F808848
:10F6C0000A186088430019480068C05A431E9A42CD
:10F6D00004DD401A1649091F401E88802988A81C8D
:10F6E00008181349091F8A880F49F639FBF7EEFC01
:10F6F0000F482988001F8088081828807F1C0498DC
:10F70000FFB2807DB84208D9608829884200074846
:10F710000068805A401E8142A4DB60882946FDF7BC
:10F7200023F8009807B0F0BD8A92FF1F0869FF1FF9
:10F730002466FF1FF3B5054683B0044608350089EB
:10F7400001A9FDF737FF2746E8370646002822D0F3
:10F75000307A80060ED568468088FFF7FBFB0300F1
:10F7600006D06088122231469847060002D013E086
:10F770000E2611E0002000906B88298860882A1DE1
:10F78000FDF7CAFE060007D1787E002807D1608801
:10F79000FDF71EF803E00126049829880180787E91
:10F7A000002802D0002005B0F0BD3046FBE7000085
:10F7B0000149C860002070472066FF1FF8B5044665
:10F7C0000246F82042431948002507464570103785
:10F7D0007868002807D00020C100C919401C000625
:10F7E0004D60000EF8D0124E00213046FBF73AFD76
:10F7F000002001466143C9B2F82251438B190B49DD
:10F80000C200103152180021536005E0F8274F4321
:10F810005368491CDD53C9B2A142F7D3401C00060E
:10F82000000EE6D0014844700020F8BD2066FF1F9E
:10F830009C90FF1F7CB50C78069D022C0FD14C6864
:10F840002678647824023419064EA4B2F44206D114
:10F850000224DBB200950194FDF7B2FC7CBD0120CF
:10F860007CBD0000FED6FFFFF8B505461D48854269
:10F8700023D0461C002921D001292BD002291CD1DC
:10F880000121284600F0F8FF002816D12846FFF78E
:10F8900099F9040011D0A078FF280ED0FE2807D0D7
:10F8A00000200090E0781E2314222946FFF7B6F9C5
:10F8B0002046FFF747FBFF20A070F8BD2846FFF762
:10F8C00081F90028F9D13046FFF77CF90028F4D0FF
:10F8D0000580F8BD2846FFF775F90400F9D02680A9
:10F8E000D9E70000FEFF0000F3B50C468978C1B0EF
:10F8F0001E2914D02E4D6878FF2829D0182927D822
:10F900004808C2002B481218803A976F002F1FD06A
:10F91000D06F00281CD02078002817D113E0419820
:10F92000FFF750F905000BD000200090A378E8788D
:10F9300000224199FFF772F906462846FFF702FBBD
:10F94000304643B0F0BD6278012A03D1122901D0BC
:10F950000620F6E702AE0096A3886178A268B84751
:10F960000028EED1A0784008C1001248081880385D
:10F97000C26F02A94198904700280FD061780029F2
:10F98000DFD1A27869460A70087168460189418012
:10F9900069464198FCF720FD0020D2E7A378042BAC
:10F9A000CFD00096002268784199FFF737F9C8E771
:10F9B000B069FF1F9C0B0111002904D0034A10708D
:10F9C000002091607047022070470000B069FF1F5F
:10F9D00000B50346FDF750FF002803D0C018401EB5
:10F9E00080B200BD184600BD10B5040008D02078D4
:10F9F000FF2805D0FE2803D0FBF70CFDFF20207068
:10FA000010BD0000F7B506460F461020FBF766FC58
:10FA100005461020FBF762FC0446002D3AD0002C6E
:10FA20002DD010220021FBF71DFC2A46214630462E
:10FA300000F094FF060023D12878000604D439464C
:10FA4000284600F0F3FD08E02146284600F0EEFDD0
:10FA50003A461149204601F079F83878000604D476
:10FA60003846029900F0E2FD0AE02146384600F0EF
:10FA7000DDFD09492046029A01F068F800E01326EE
:10FA80002846FBF73DFC002C02D02046FBF738FC53
:10FA90003046FEBD1326F6E7260C0111F8B5069890
:10FAA00000271D4614460E46002801D00B20F8BD45
:10FAB00030780021022801D019804DE0706802786A
:10FAC000407800021018152280B25202801A0300FA
:10FAD000FBF7BAFA0504121F1A254100F068FBF77C
:10FAE00033FCC2B20798824200D902462A80F168EC
:10FAF0002046FBF7EBFA30E0F0680221008829800D
:10FB00002070000A607028E0062028800246F16814
:10FB1000EEE701202880F068007820701DE0F06892
:10FB2000002816D008212980017821700188090A4F
:10FB300061708178A1704188090AE17001792171B1
:10FB40008188090A61718179A171C088000AE07118
:10FB500003E0298001E0298001273846F8BD10B56F
:10FB60000B78840702D50224234301E0FD242340BF
:10FB70000B7003070B7802D50824234301E0F72418
:10FB800023400B7083060B7802D52024234301E029
:10FB9000DF2423400B700A21084201D1810603D5DE
:10FBA00010780C21084304E0002803D11078F321D9
:10FBB0000840107010BD0000FFB581B00878002427
:10FBC0000A9E1F460D4602280FD1686801784078CA
:10FBD00000020818152180B24902401A09D00128F4
:10FBE00029D0022848D003283CD00124204605B063
:10FBF000F0BDE868FBF7A8FBC0B2864205D8F01953
:10FC00000090152803D90D24F0E70724EEE7E868F3
:10FC10003A4680190399FBF759FA0098EA6880B2CE
:10FC2000002111541C4840680028DFD001680029D9
:10FC3000DCD0002012E0002E12D1022BE3D1039978
:10FC4000E8680A784978090251180180124840682A
:10FC50000028CBD001680029C8D001208847C5E71B
:10FC60000B24C3E7002EFBD1062BCCD10622E8687B
:10FC70000399FBF72BFAB9E7002EF1D1012BC2D182
:10FC800003980078002803D0012801D08024ADE734
:10FC9000E9680870AAE700008466FF1F10B50448F1
:10FCA000C16B034A40321068D06000F023F810BDE9
:10FCB0000080004010B5162801D9052010BD0C4B5E
:10FCC0009C6B01228240104620439863586B9043FE
:10FCD0005863DC6B012907D020469043D863186B2A
:10FCE00002431A63002010BD10462043F6E70000CF
:10FCF00000800040F3B5204D81B00746002401206C
:10FD0000A040384233D00299084201D0012600E0D9
:10FD10000026E0B2162810D80C22424351194A6836
:10FD2000002A03D0002E01D0012105E08A68002AB4
:10FD300003D0002E01D1002190470C2060434019D0
:10FD40004168806800290DD0002806D0002E02D01E
:10FD50000021E0B203E00121FBE7E0B20121FFF75F
:10FD6000A9FF04E0002802D0E0B20021F7E7641CFC
:10FD7000172CC4DBFEBD0000B097FF1F08B5094873
:10FD80008368002B0CD01A78694601205B1CFEF7B3
:10FD9000EAF8002804D00078C00701D0012008BD8F
:10FDA000002008BD7C69FF1F10B503460B4A0020E8
:10FDB0000A21414389184988002905D0401CC0B256
:10FDC0000328F5D3002010BD0A21002441435454D8
:10FDD0000446403488184480037210BDB099FF1F58
:10FDE0000A7802700A88120A42708A7882704A88F9
:10FDF000120AC2700A7902718A88120A42718A79DB
:10FE00008271C988090AC17108207047F8B5044693
:10FE10000D4648680421FBF7D9FA297A017029892F
:10FE20000346401C090A0170297841702988090A93
:10FE30008170287A001DC2B2FB2A38D81D4884423E
:10FE400015D115461E460C20FBF784FA01000CD094
:10FE500090200870022008714C808E601648CD807A
:10FE60000078FBF753FA00271FE013271DE05C2002
:10FE70002546124E4543B06829185820405C00289A
:10FE80000BD00F480727416A491C4162B068291806
:10FE90005820405C002805D007E0204600F098F983
:10FEA0000746F3E72046FBF7BBFA3846F8BD0220C9
:10FEB000F8BD0000FEFF0000C969FF1FCC69FF1FED
:10FEC000D099FF1F10B50A4A00210A234B439B1803
:10FED0005C88002C06D01B79834203D10A20414361
:10FEE000881810BD491CC9B20329EED3002010BDEB
:10FEF000B099FF1F002141800170704770477CB5A9
:10FF000004000FD0608800280CD0002500950195D2
:10FF10001323E188207A172200F028F8FF2060726E
:10FF2000658025707CBDF8B5074615460E46102045
:10FF3000FBF710FA040017D0A0202070002060709A
:10FF40006680002D05D00C222946201DFBF7BEF847
:10FF500004E00C220021201DFBF784F921463846DD
:10FF6000FBF7D4F90020F8BD0120F8BDFFB581B042
:10FF70001E46174614200B9DFBF7ECF904001AD01F
:10FF8000A22020706770029860800A9820716671C4
:10FF9000002D06D020460C2229460830FBF796F8A3
:10FFA00005E020460C2200210830FBF75BF92146D2
:10FFB0000198FBF7ABF905B0F0BD022A1CD34B78D2
:10FFC0000A781B02D21892B20280012A02D0022AB9
:10FFD00006D00FE08A78C97809025118418009E0FB
:10FFE000CB788A781B02D21842800A7949790902B3
:10FFF000511881800020704701207047F8B50646EF
:020000041101E8
:100000004F88002070600D46097964488C4640682E
:1000100002290FD03C01025B002A06D021188B6810
:10002000002B02D06346012B7ED05D484169491CFC
:100030004161AEE0EA88042A40D3A9684C780B7885
:1000400024021B199BB20093CC788B7824021B19D5
:100050009CB20B7AC97909025918504B5980009B00
:100060001B1D9A421ED1072C11D0052C0FD0042C39
:1000700002D0062C22D10AE03901405A002806D0CD
:100080003846FDF73FFD46480169491C016100986B
:10009000308134800321C943A868FBF797F9706069
:1000A0000020F8BD072C0AD0052C08D0042C06D05F
:1000B000062C04D03A48C168491CC1606CE09A42E1
:1000C000F8D8042C0AD13901405A002806D0384605
:1000D000FDF718FD32480169491C01613E012F4FAF
:1000E00000207968885371180098888178683018E2
:1000F00084800098FDF7ACFD79687118886000284D
:1001000019D00321C943A868FBF760F90146786854
:10011000EA8830188068121FFAF7D8FF7868EA88F2
:10012000815B8918091F00E00AE081531C480168BF
:10013000491C016030E01A488169491C81612BE04B
:10014000EB88D21892B20253888982421DD88868FF
:10015000124F8018EA88A968801AFAF7B7FF786802
:10016000025B21188889824216D1308188883080CC
:100170007868211888687060002088607968085362
:1001800007484168491C416006E005488168491CF0
:1001900081603846FDF7B6FC0120F8BDCC69FF1F31
:1001A000D099FF1F022A01D0012070470A784978B0
:1001B000090251180180002070470A7802704A78BD
:1001C00042708A78C978090251184180704700004E
:1001D000FFB50C4607463E49A120800009687843D8
:1001E0004018FF30C130067E89B015463846FCF70E
:1001F00047F9001DB04204D23846FCF741F9001D12
:10020000C6B2B54207D82A46002138460C9BFBF7F8
:100210000DF90DB0F0BD31462846FBF7A1F8274691
:10022000403738740C99616501467143691AC9B247
:1002300002910C9904910299002901D0401C387454
:10024000002523E00299002904D0401EA84201D1D4
:10025000084600E03046E900059103916054FDF73F
:10026000E7FB03990919486000281BD00599625CD7
:100270000499FAF72BFF0598215C0498081804905C
:100280001448C169491C6D1CEDB2C161387CA8429B
:10029000D8D8606D002803D0FBF780F80020606597
:1002A0000020B6E7002038740646606508E0F000DC
:1002B00007197868FBF772F80020761CF6B27860B0
:1002C000AE42F4D30348C16A491CC1621320A0E7BF
:1002D0003409FF1FD099FF1FF7B586B016460D46AB
:1002E0004878FFF7EFFD040010D000272771287829
:1002F000012802D0132809D105E06A88314602A8F6
:10030000FFF75BFE0AE02078032802D0002009B046
:10031000F0BD6A88314602A8FFF744FF0646204632
:1003200000F06AF902A8019000972B78207A3246F3
:100330000699FFF71BFE2046FFF7DCFD3046E6E797
:10034000FEB50446468801466846FFF757FE054657
:10035000019800282FD068460088052806D0042878
:1003600009D0062807D0072805D026E06946304680
:1003700000F030F821E081001548081801464039A6
:10038000098E002919D02038807C6A463146FFF753
:10039000CAFD002811D168460088042803D0012135
:1003A0003046FDF749FB012D04D1A068002801D09B
:1003B000FAF7F4FFFEBD012D04D1A068002801D09A
:1003C000FAF7ECFF01213046FDF736FBFEBD0000D9
:1003D000A099FF1F30B50546088987B00C46042850
:1003E00017D302A86168FFF7E8FE6846408917281E
:1003F00037D82189001D81421ED16846007AC10785
:1004000009D0626802A92846121DFFF765FF00287F
:1004100012D107B030BD6168091D122805D0002037
:1004200069460880497A6A4622E06846428903A8FC
:10043000FDF734FB002803D02846FFF75FFDE8E70F
:100440000D4881880029E4D06946497A03AA0192BF
:10045000009169460B7A807900222946FFF786FDD4
:10046000D7E701216846018017214180417A6A4619
:100470002846FDF7C5FACCE7A099FF1FF8B5002480
:1004800043E0244E002570682701C5533818858144
:10049000706838188580706838188068002804D023
:1004A000FAF77CFF7068381885605C202746474360
:1004B00018488168791840310D7481687918403185
:1004C0004D748168791840310D7680683818406D18
:1004D000002805D00F4EFAF761FFB068381845655F
:1004E00000260C49F5008868381840194068002833
:1004F00007D0FAF753FF07480021806838184019E1
:100500004160761C0A2EECDB641C034800788442B0
:10051000B7DBF8BDCC69FF1FD869FF1FFFB589B0F5
:1005200015460E461720129FFDF792FB040021D0BE
:10053000684606704570002F03D0201D0C99B847FF
:1005400000E0002069464880267065704888A070E9
:10055000010AE170052269468A82001D069488839B
:1005600005A90998FFF752FC050004D02046FAF7C8
:1005700015FF00E0132528460DB0F0BDFFB581B092
:100580001E46054601210A9F0B9C00F075F90028C4
:1005900011D02046FFF708FC00280AD0C580044689
:1005A000077012484178491C0A06120E427004D0A6
:1005B00005E015250FE014250DE00122427022719F
:1005C00000962846039B0299FFF7A8FF050005D077
:1005D0002046FFF78FFC284605B0F0BD2346214694
:1005E000034A09330348FAF727FFF4E7CC69FF1FF2
:1005F00030750000FFFE001110B50446407AFAF78E
:1006000009FFFF20607210BD00280AD0102808D80A
:10061000002906D0002A04D00348826041600020EF
:100620007047022070470000CC69FF1F10B50024FE
:100630000F22835C5B0023438B54835C521EDC09D6
:1006400052B2002AF5DA10BDFFB581B01E4617463A
:100650000D46084600F058F8002802D0112005B0D9
:10066000F0BD154800F050F8040022D00A98A0719F
:100670000622E01D0B99FAF729FD65802771667146
:1006800001982070002060620C98E081FDF7DAFC90
:10069000282108550020FDF7C7FC01462046062208
:1006A0002930FAF713FD0021284600F0F7F8002062
:1006B000D5E71520D3E70000FFFF000070B5144612
:1006C0000D46064600F020F800280BD0416A00795C
:1006D00000290CD0C20611D580070AD4002C08D0FE
:1006E000052070BD074886420AD0142070BDC006A0
:1006F000F6D5887EA84203D20C2070BD0F2070BDB5
:10070000002070BDFEFF000030B50A4A00211378BA
:100710000CE0302455684C4364196488844203D14A
:1007200030204143481930BD491CC9B29942F0D329
:10073000002030BDD869FF1FF0B50C4B00210C4ED6
:100740001D780FE030225C684A4317197F88B74252
:1007500006D0A25C824203D1302041430819F0BD8B
:10076000491CC9B2A942EDD30020F0BDD869FF1FD2
:10077000FFFF000070B5104900200C7802460F4EB4
:100780000CE030234D6843435D196E804D685D1960
:100790002A714D685B19401CC0B25A62A042F0D366
:1007A0008B680020497803E08400401C1A51C0B2D5
:1007B0008842F9D370BD0000D869FF1FFFFF000019
:1007C00000280DD010280BD8002909D0002A07D006
:1007D000044B1870801D58709A6000205960704753
:1007E00018207047D869FF1F10B5094A00205368C8
:1007F0000146127809E030244C43E4182479002C97
:1008000001D0401CC0B2491CC9B29142F3D310BD03
:10081000D869FF1F30B5094A0021537806E0956872
:100820008C002C59002C05D0491CC9B29942F6D332
:10083000132030BD89006850002030BDD869FF1FEB
:1008400010B5FFF761FF040013D06088012100F0AC
:1008500025F8606A002801D0FAF752FD3022002105
:100860002046FAF7FFFC0020C04360800020207182
:1008700010BD022010BD000010B50C46064988428C
:1008800006D0FFF741FF002804D00079204201D0B4
:10089000012010BD002010BDFEFF0000F8B50E467F
:1008A00007460024074D09E0A968A0000A58002A5D
:1008B00002D0314638469047641CE4B268788442DE
:1008C000F2D3F8BDD869FF1FFFB581B01D461746AA
:1008D00014200E9EFAF73EFD040020D0D020207098
:1008E000019860700520A070E770002D05D00622E9
:1008F0002946201DFAF7EAFB04E006220021201D0C
:10090000FAF7B0FC0A9860810B98A0810C98E081FE
:100910000D982082A67421460298FAF7F7FC05B0DC
:10092000F0BDF8B506461C4615460F460820FAF7F6
:1009300011FD010009D0D02008704E70062088708B
:100940008D808C713846FAF7E1FCF8BD10B502468F
:10095000014620321031FAF775FD10BD10B5FAF7D7
:1009600071FD10BD70B50D46064600240AE0FAF789
:100970006FFD010A3155641CE4B2AC4202D230551D
:10098000641CE4B2AC42F2D370BD0000002903D075
:10099000002801D0102801D902207047044AD160F4
:1009A000002101E0491CC9B28142FBD300207047FD
:1009B000E469FF1FFFB587B017461020FAF78EFCD9
:1009C00001901020FAF78AFC0090019800287DD051
:1009D000009800287BD0024601990798FFF712F88B
:1009E00004007ED11020FAF779FC02901020FAF76B
:1009F00075FC0646029800286BD0002E7CD0384645
:100A00000F30050902D038070CD000E00125002086
:100A10002901103900280898C9B205D0401832467B
:100A200001991AE00120F3E7401884463A07120FB3
:100A3000002003A98023904202D267463F5C04E075
:100A4000904201D10B5401E000270F54401CC0B26A
:100A50001028F0D3324603A8009900F077F810224E
:100A600000210298FAF7FEFB00276D1E0FE0380701
:100A70000899000E091803AA029800F067F803A964
:100A8000029A0798FFF76AFF7F1C04463FB2AF4205
:100A900002DA002CEBD011E0002C0FD103AA314672
:100AA000029800F053F803A9029A0798FFF756FF3F
:100AB0000446082202990A98FAF708FB02980028CF
:100AC00001D0FAF71DFC002E08D004E01AE017E070
